{
    "contractName": "HealthRecordsStorage",
    "abi": [
        {
            "inputs": [
                {
                    "internalType": "address",
                    "name": "_rolesStorage",
                    "type": "address"
                }
            ],
            "stateMutability": "nonpayable",
            "type": "constructor"
        },
        {
            "anonymous": false,
            "inputs": [
                {
                    "indexed": true,
                    "internalType": "address",
                    "name": "patient",
                    "type": "address"
                },
                {
                    "indexed": true,
                    "internalType": "address",
                    "name": "uploader",
                    "type": "address"
                },
                {
                    "indexed": false,
                    "internalType": "enum HealthRecordsStorage.DataType",
                    "name": "dataType",
                    "type": "uint8"
                },
                {
                    "indexed": false,
                    "internalType": "string",
                    "name": "dataHash",
                    "type": "string"
                }
            ],
            "name": "RecordUploaded",
            "type": "event"
        },
        {
            "inputs": [
                {
                    "internalType": "address",
                    "name": "patient",
                    "type": "address"
                },
                {
                    "internalType": "enum HealthRecordsStorage.DataType",
                    "name": "dataType",
                    "type": "uint8"
                },
                {
                    "internalType": "string",
                    "name": "dataHash",
                    "type": "string"
                }
            ],
            "name": "storeRecord",
            "outputs": [],
            "stateMutability": "nonpayable",
            "type": "function"
        },
        {
            "inputs": [
                {
                    "internalType": "address",
                    "name": "patient",
                    "type": "address"
                }
            ],
            "name": "getRecords",
            "outputs": [
                {
                    "components": [
                        {
                            "internalType": "enum HealthRecordsStorage.DataType",
                            "name": "dataType",
                            "type": "uint8"
                        },
                        {
                            "internalType": "string",
                            "name": "dataHash",
                            "type": "string"
                        },
                        {
                            "internalType": "address",
                            "name": "uploadedBy",
                            "type": "address"
                        },
                        {
                            "internalType": "uint256",
                            "name": "timestamp",
                            "type": "uint256"
                        }
                    ],
                    "internalType": "struct HealthRecordsStorage.HealthRecord[]",
                    "name": "",
                    "type": "tuple[]"
                }
            ],
            "stateMutability": "view",
            "type": "function",
            "constant": true
        }
    ],
    "bytecode": "0x608060405234801561001057600080fd5b50604051610f8d380380610f8d8339818101604052810190610032919061008d565b806000806101000a81548173ffffffffffffffffffffffffffffffffffffffff021916908373ffffffffffffffffffffffffffffffffffffffff160217905550506100ff565b600081519050610087816100e8565b92915050565b60006020828403121561009f57600080fd5b60006100ad84828501610078565b91505092915050565b60006100c1826100c8565b9050919050565b600073ffffffffffffffffffffffffffffffffffffffff82169050919050565b6100f1816100b6565b81146100fc57600080fd5b50565b610e7f8061010e6000396000f3fe608060405234801561001057600080fd5b50600436106100365760003560e01c80637fcfef941461003b578063a0076e8414610057575b600080fd5b61005560048036038101906100509190610898565b610087565b005b610071600480360381019061006c919061086f565b61050e565b60405161007e9190610b52565b60405180910390f35b600160038111156100c1577f4e487b7100000000000000000000000000000000000000000000000000000000600052602160045260246000fd5b60008054906101000a900473ffffffffffffffffffffffffffffffffffffffff1673ffffffffffffffffffffffffffffffffffffffff166344276733336040518263ffffffff1660e01b815260040161011a9190610b37565b60206040518083038186803b15801561013257600080fd5b505afa158015610146573d6000803e3d6000fd5b505050506040513d601f19601f8201168201806040525081019061016a91906108ff565b60038111156101a2577f4e487b7100000000000000000000000000000000000000000000000000000000600052602160045260246000fd5b14806102c65750600260038111156101e3577f4e487b7100000000000000000000000000000000000000000000000000000000600052602160045260246000fd5b60008054906101000a900473ffffffffffffffffffffffffffffffffffffffff1673ffffffffffffffffffffffffffffffffffffffff166344276733336040518263ffffffff1660e01b815260040161023c9190610b37565b60206040518083038186803b15801561025457600080fd5b505afa158015610268573d6000803e3d6000fd5b505050506040513d601f19601f8201168201806040525081019061028c91906108ff565b60038111156102c4577f4e487b7100000000000000000000000000000000000000000000000000000000600052602160045260246000fd5b145b610305576040517f08c379a00000000000000000000000000000000000000000000000000000000081526004016102fc90610ba4565b60405180910390fd5b600160008473ffffffffffffffffffffffffffffffffffffffff1673ffffffffffffffffffffffffffffffffffffffff1681526020019081526020016000206040518060800160405280846003811115610388577f4e487b7100000000000000000000000000000000000000000000000000000000600052602160045260246000fd5b81526020018381526020013373ffffffffffffffffffffffffffffffffffffffff16815260200142815250908060018154018082558091505060019003906000526020600020906004020160009091909190915060008201518160000160006101000a81548160ff0219169083600381111561042d577f4e487b7100000000000000000000000000000000000000000000000000000000600052602160045260246000fd5b0217905550602082015181600101908051906020019061044e929190610725565b5060408201518160020160006101000a81548173ffffffffffffffffffffffffffffffffffffffff021916908373ffffffffffffffffffffffffffffffffffffffff1602179055506060820151816003015550503373ffffffffffffffffffffffffffffffffffffffff168373ffffffffffffffffffffffffffffffffffffffff167fa61157c66534eb307c2daa45ee5b3cabe6a3b04fafa20fc3dcf8cd5ab504a0918484604051610501929190610b74565b60405180910390a3505050565b6060600160008373ffffffffffffffffffffffffffffffffffffffff1673ffffffffffffffffffffffffffffffffffffffff168152602001908152602001600020805480602002602001604051908101604052809291908181526020016000905b8282101561071a57838290600052602060002090600402016040518060800160405290816000820160009054906101000a900460ff1660038111156105dd577f4e487b7100000000000000000000000000000000000000000000000000000000600052602160045260246000fd5b6003811115610615577f4e487b7100000000000000000000000000000000000000000000000000000000600052602160045260246000fd5b815260200160018201805461062990610d2e565b80601f016020809104026020016040519081016040528092919081815260200182805461065590610d2e565b80156106a25780601f10610677576101008083540402835291602001916106a2565b820191906000526020600020905b81548152906001019060200180831161068557829003601f168201915b505050505081526020016002820160009054906101000a900473ffffffffffffffffffffffffffffffffffffffff1673ffffffffffffffffffffffffffffffffffffffff1673ffffffffffffffffffffffffffffffffffffffff1681526020016003820154815250508152602001906001019061056f565b505050509050919050565b82805461073190610d2e565b90600052602060002090601f016020900481019282610753576000855561079a565b82601f1061076c57805160ff191683800117855561079a565b8280016001018555821561079a579182015b8281111561079957825182559160200191906001019061077e565b5b5090506107a791906107ab565b5090565b5b808211156107c45760008160009055506001016107ac565b5090565b60006107db6107d684610bf5565b610bc4565b9050828152602081018484840111156107f357600080fd5b6107fe848285610cec565b509392505050565b60008135905061081581610e12565b92915050565b60008135905061082a81610e29565b92915050565b60008151905061083f81610e39565b92915050565b600082601f83011261085657600080fd5b81356108668482602086016107c8565b91505092915050565b60006020828403121561088157600080fd5b600061088f84828501610806565b91505092915050565b6000806000606084860312156108ad57600080fd5b60006108bb86828701610806565b93505060206108cc8682870161081b565b925050604084013567ffffffffffffffff8111156108e957600080fd5b6108f586828701610845565b9150509250925092565b60006020828403121561091157600080fd5b600061091f84828501610830565b91505092915050565b60006109348383610ac5565b905092915050565b61094581610c8b565b82525050565b61095481610c8b565b82525050565b600061096582610c35565b61096f8185610c58565b93508360208202850161098185610c25565b8060005b858110156109bd578484038952815161099e8582610928565b94506109a983610c4b565b925060208a01995050600181019050610985565b50829750879550505050505092915050565b6109d881610cda565b82525050565b6109e781610cda565b82525050565b60006109f882610c40565b610a028185610c69565b9350610a12818560208601610cfb565b610a1b81610ded565b840191505092915050565b6000610a3182610c40565b610a3b8185610c7a565b9350610a4b818560208601610cfb565b610a5481610ded565b840191505092915050565b6000610a6c602683610c7a565b91507f4f6e6c7920646f63746f7273206f722061646d696e732063616e2075706c6f6160008301527f64206461746100000000000000000000000000000000000000000000000000006020830152604082019050919050565b6000608083016000830151610add60008601826109cf565b5060208301518482036020860152610af582826109ed565b9150506040830151610b0a604086018261093c565b506060830151610b1d6060860182610b28565b508091505092915050565b610b3181610cd0565b82525050565b6000602082019050610b4c600083018461094b565b92915050565b60006020820190508181036000830152610b6c818461095a565b905092915050565b6000604082019050610b8960008301856109de565b8181036020830152610b9b8184610a26565b90509392505050565b60006020820190508181036000830152610bbd81610a5f565b9050919050565b6000604051905081810181811067ffffffffffffffff82111715610beb57610bea610dbe565b5b8060405250919050565b600067ffffffffffffffff821115610c1057610c0f610dbe565b5b601f19601f8301169050602081019050919050565b6000819050602082019050919050565b600081519050919050565b600081519050919050565b6000602082019050919050565b600082825260208201905092915050565b600082825260208201905092915050565b600082825260208201905092915050565b6000610c9682610cb0565b9050919050565b6000819050610cab82610dfe565b919050565b600073ffffffffffffffffffffffffffffffffffffffff82169050919050565b6000819050919050565b6000610ce582610c9d565b9050919050565b82818337600083830152505050565b60005b83811015610d19578082015181840152602081019050610cfe565b83811115610d28576000848401525b50505050565b60006002820490506001821680610d4657607f821691505b60208210811415610d5a57610d59610d8f565b5b50919050565b7f4e487b7100000000000000000000000000000000000000000000000000000000600052602160045260246000fd5b7f4e487b7100000000000000000000000000000000000000000000000000000000600052602260045260246000fd5b7f4e487b7100000000000000000000000000000000000000000000000000000000600052604160045260246000fd5b6000601f19601f8301169050919050565b60048110610e0f57610e0e610d60565b5b50565b610e1b81610c8b565b8114610e2657600080fd5b50565b60048110610e3657600080fd5b50565b60048110610e4657600080fd5b5056fea26469706673582212207b43e3dc1efc5fe13a9c0f61e077b9fbbe20604d3b3c13592757f144b51f4e9964736f6c63430008000033",
    "immutableReferences": {},
    "source": "// SPDX-License-Identifier: MIT\r\npragma solidity ^0.8.0;\r\n\r\nimport \"./RolesStorage.sol\";\r\n\r\ncontract HealthRecordsStorage {\r\n    enum DataType {\r\n        Diagnosis,\r\n        Prescription,\r\n        TestResults,\r\n        Other\r\n    }\r\n\r\n    struct HealthRecord {\r\n        DataType dataType;\r\n        string dataHash;\r\n        address uploadedBy;\r\n        uint256 timestamp;\r\n    }\r\n\r\n    RolesStorage private rolesStorage;\r\n\r\n    mapping(address => HealthRecord[]) private patientRecords;\r\n\r\n    event RecordUploaded(\r\n        address indexed patient,\r\n        address indexed uploader,\r\n        DataType dataType,\r\n        string dataHash\r\n    );\r\n\r\n    modifier onlyDoctorOrAdmin() {\r\n        require(\r\n            rolesStorage.getRole(msg.sender) == RolesStorage.Role.Doctor ||\r\n                rolesStorage.getRole(msg.sender) == RolesStorage.Role.Admin,\r\n            \"Only doctors or admins can upload data\"\r\n        );\r\n        _;\r\n    }\r\n\r\n    constructor(address _rolesStorage) {\r\n        rolesStorage = RolesStorage(_rolesStorage);\r\n    }\r\n\r\n    function storeRecord(\r\n        address patient,\r\n        DataType dataType,\r\n        string memory dataHash\r\n    ) external onlyDoctorOrAdmin {\r\n        patientRecords[patient].push(\r\n            HealthRecord(dataType, dataHash, msg.sender, block.timestamp)\r\n        );\r\n        emit RecordUploaded(patient, msg.sender, dataType, dataHash);\r\n    }\r\n\r\n    function getRecords(\r\n        address patient\r\n    ) external view returns (HealthRecord[] memory) {\r\n        return patientRecords[patient];\r\n    }\r\n}\r\n",
    "sourcePath": "D:\\Code\\Web3-Healthcare\\server\\src\\contracts\\HealthRecordsStorage.sol",
    "compiler": {
        "name": "solc",
        "version": "0.8.0+commit.c7dfd78e.Emscripten.clang"
    },
    "schemaVersion": "3.4.16",
    "updatedAt": "2025-03-26T05:05:06.889Z",
    "networkType": "ethereum",
    "devdoc": {
        "kind": "dev",
        "methods": {},
        "version": 1
    },
    "userdoc": {
        "kind": "user",
        "methods": {},
        "version": 1
    }
}