{
  "contractName": "HealthRecords",
  "abi": [
    {
      "inputs": [],
      "stateMutability": "nonpayable",
      "type": "constructor"
    },
    {
      "inputs": [],
      "name": "getOwner",
      "outputs": [
        {
          "internalType": "address",
          "name": "",
          "type": "address"
        }
      ],
      "stateMutability": "view",
      "type": "function"
    },
    {
      "inputs": [
        {
          "internalType": "address",
          "name": "provider",
          "type": "address"
        }
      ],
      "name": "authorizedProvider",
      "outputs": [],
      "stateMutability": "nonpayable",
      "type": "function"
    },
    {
      "inputs": [
        {
          "internalType": "uint256",
          "name": "patientID",
          "type": "uint256"
        },
        {
          "internalType": "string",
          "name": "patientName",
          "type": "string"
        },
        {
          "internalType": "string",
          "name": "diagnosis",
          "type": "string"
        },
        {
          "internalType": "string",
          "name": "treatment",
          "type": "string"
        }
      ],
      "name": "addRecord",
      "outputs": [],
      "stateMutability": "nonpayable",
      "type": "function"
    },
    {
      "inputs": [
        {
          "internalType": "uint256",
          "name": "patientID",
          "type": "uint256"
        }
      ],
      "name": "getPatientRecords",
      "outputs": [
        {
          "components": [
            {
              "internalType": "uint256",
              "name": "recordID",
              "type": "uint256"
            },
            {
              "internalType": "string",
              "name": "patientName",
              "type": "string"
            },
            {
              "internalType": "string",
              "name": "diagnosis",
              "type": "string"
            },
            {
              "internalType": "string",
              "name": "treatment",
              "type": "string"
            },
            {
              "internalType": "uint256",
              "name": "timestamp",
              "type": "uint256"
            }
          ],
          "internalType": "struct HealthRecords.Record[]",
          "name": "",
          "type": "tuple[]"
        }
      ],
      "stateMutability": "view",
      "type": "function"
    }
  ],
  "bytecode": "0x608060405234801561000f575f80fd5b50335f806101000a81548173ffffffffffffffffffffffffffffffffffffffff021916908373ffffffffffffffffffffffffffffffffffffffff160217905550610f5a8061005c5f395ff3fe608060405234801561000f575f80fd5b506004361061004a575f3560e01c80631a08a3481461004e578063893d20e81461006a578063ac23306414610088578063dce7e843146100a4575b5f80fd5b61006860048036038101906100639190610780565b6100d4565b005b61007261023b565b60405161007f9190610877565b60405180910390f35b6100a2600480360381019061009d91906108ba565b610262565b005b6100be60048036038101906100b991906108e5565b610347565b6040516100cb9190610ad5565b60405180910390f35b60025f3373ffffffffffffffffffffffffffffffffffffffff1673ffffffffffffffffffffffffffffffffffffffff1681526020019081526020015f205f9054906101000a900460ff1661015d576040517f08c379a000000000000000000000000000000000000000000000000000000000815260040161015490610b4f565b60405180910390fd5b5f6001805f8781526020019081526020015f208054905061017e9190610b9a565b905060015f8681526020019081526020015f206040518060a0016040528083815260200186815260200185815260200184815260200142815250908060018154018082558091505060019003905f5260205f2090600502015f909190919091505f820151815f015560208201518160010190816101fb9190610dc7565b5060408201518160020190816102119190610dc7565b5060608201518160030190816102279190610dc7565b506080820151816004015550505050505050565b5f805f9054906101000a900473ffffffffffffffffffffffffffffffffffffffff16905090565b5f8054906101000a900473ffffffffffffffffffffffffffffffffffffffff1673ffffffffffffffffffffffffffffffffffffffff163373ffffffffffffffffffffffffffffffffffffffff16146102ef576040517f08c379a00000000000000000000000000000000000000000000000000000000081526004016102e690610f06565b60405180910390fd5b600160025f8373ffffffffffffffffffffffffffffffffffffffff1673ffffffffffffffffffffffffffffffffffffffff1681526020019081526020015f205f6101000a81548160ff02191690831515021790555050565b606060025f3373ffffffffffffffffffffffffffffffffffffffff1673ffffffffffffffffffffffffffffffffffffffff1681526020019081526020015f205f9054906101000a900460ff166103d2576040517f08c379a00000000000000000000000000000000000000000000000000000000081526004016103c990610b4f565b60405180910390fd5b60015f8381526020019081526020015f20805480602002602001604051908101604052809291908181526020015f905b828210156105f5578382905f5260205f2090600502016040518060a00160405290815f820154815260200160018201805461043c90610bfa565b80601f016020809104026020016040519081016040528092919081815260200182805461046890610bfa565b80156104b35780601f1061048a576101008083540402835291602001916104b3565b820191905f5260205f20905b81548152906001019060200180831161049657829003601f168201915b505050505081526020016002820180546104cc90610bfa565b80601f01602080910402602001604051908101604052809291908181526020018280546104f890610bfa565b80156105435780601f1061051a57610100808354040283529160200191610543565b820191905f5260205f20905b81548152906001019060200180831161052657829003601f168201915b5050505050815260200160038201805461055c90610bfa565b80601f016020809104026020016040519081016040528092919081815260200182805461058890610bfa565b80156105d35780601f106105aa576101008083540402835291602001916105d3565b820191905f5260205f20905b8154815290600101906020018083116105b657829003601f168201915b5050505050815260200160048201548152505081526020019060010190610402565b505050509050919050565b5f604051905090565b5f80fd5b5f80fd5b5f819050919050565b61062381610611565b811461062d575f80fd5b50565b5f8135905061063e8161061a565b92915050565b5f80fd5b5f80fd5b5f601f19601f8301169050919050565b7f4e487b71000000000000000000000000000000000000000000000000000000005f52604160045260245ffd5b6106928261064c565b810181811067ffffffffffffffff821117156106b1576106b061065c565b5b80604052505050565b5f6106c3610600565b90506106cf8282610689565b919050565b5f67ffffffffffffffff8211156106ee576106ed61065c565b5b6106f78261064c565b9050602081019050919050565b828183375f83830152505050565b5f61072461071f846106d4565b6106ba565b9050828152602081018484840111156107405761073f610648565b5b61074b848285610704565b509392505050565b5f82601f83011261076757610766610644565b5b8135610777848260208601610712565b91505092915050565b5f805f806080858703121561079857610797610609565b5b5f6107a587828801610630565b945050602085013567ffffffffffffffff8111156107c6576107c561060d565b5b6107d287828801610753565b935050604085013567ffffffffffffffff8111156107f3576107f261060d565b5b6107ff87828801610753565b925050606085013567ffffffffffffffff8111156108205761081f61060d565b5b61082c87828801610753565b91505092959194509250565b5f73ffffffffffffffffffffffffffffffffffffffff82169050919050565b5f61086182610838565b9050919050565b61087181610857565b82525050565b5f60208201905061088a5f830184610868565b92915050565b61089981610857565b81146108a3575f80fd5b50565b5f813590506108b481610890565b92915050565b5f602082840312156108cf576108ce610609565b5b5f6108dc848285016108a6565b91505092915050565b5f602082840312156108fa576108f9610609565b5b5f61090784828501610630565b91505092915050565b5f81519050919050565b5f82825260208201905092915050565b5f819050602082019050919050565b61094281610611565b82525050565b5f81519050919050565b5f82825260208201905092915050565b5f5b8381101561097f578082015181840152602081019050610964565b5f8484015250505050565b5f61099482610948565b61099e8185610952565b93506109ae818560208601610962565b6109b78161064c565b840191505092915050565b5f60a083015f8301516109d75f860182610939565b50602083015184820360208601526109ef828261098a565b91505060408301518482036040860152610a09828261098a565b91505060608301518482036060860152610a23828261098a565b9150506080830151610a386080860182610939565b508091505092915050565b5f610a4e83836109c2565b905092915050565b5f602082019050919050565b5f610a6c82610910565b610a76818561091a565b935083602082028501610a888561092a565b805f5b85811015610ac35784840389528151610aa48582610a43565b9450610aaf83610a56565b925060208a01995050600181019050610a8b565b50829750879550505050505092915050565b5f6020820190508181035f830152610aed8184610a62565b905092915050565b5f82825260208201905092915050565b7f4e6f7420616e20617574686f72697a65642070726f76696465720000000000005f82015250565b5f610b39601a83610af5565b9150610b4482610b05565b602082019050919050565b5f6020820190508181035f830152610b6681610b2d565b9050919050565b7f4e487b71000000000000000000000000000000000000000000000000000000005f52601160045260245ffd5b5f610ba482610611565b9150610baf83610611565b9250828201905080821115610bc757610bc6610b6d565b5b92915050565b7f4e487b71000000000000000000000000000000000000000000000000000000005f52602260045260245ffd5b5f6002820490506001821680610c1157607f821691505b602082108103610c2457610c23610bcd565b5b50919050565b5f819050815f5260205f209050919050565b5f6020601f8301049050919050565b5f82821b905092915050565b5f60088302610c867fffffffffffffffffffffffffffffffffffffffffffffffffffffffffffffffff82610c4b565b610c908683610c4b565b95508019841693508086168417925050509392505050565b5f819050919050565b5f610ccb610cc6610cc184610611565b610ca8565b610611565b9050919050565b5f819050919050565b610ce483610cb1565b610cf8610cf082610cd2565b848454610c57565b825550505050565b5f90565b610d0c610d00565b610d17818484610cdb565b505050565b5b81811015610d3a57610d2f5f82610d04565b600181019050610d1d565b5050565b601f821115610d7f57610d5081610c2a565b610d5984610c3c565b81016020851015610d68578190505b610d7c610d7485610c3c565b830182610d1c565b50505b505050565b5f82821c905092915050565b5f610d9f5f1984600802610d84565b1980831691505092915050565b5f610db78383610d90565b9150826002028217905092915050565b610dd082610948565b67ffffffffffffffff811115610de957610de861065c565b5b610df38254610bfa565b610dfe828285610d3e565b5f60209050601f831160018114610e2f575f8415610e1d578287015190505b610e278582610dac565b865550610e8e565b601f198416610e3d86610c2a565b5f5b82811015610e6457848901518255600182019150602085019450602081019050610e3f565b86831015610e815784890151610e7d601f891682610d90565b8355505b6001600288020188555050505b505050505050565b7f4f6e6c79206f776e65722063616e20706572666f726d20746869732066756e635f8201527f74696f6e00000000000000000000000000000000000000000000000000000000602082015250565b5f610ef0602483610af5565b9150610efb82610e96565b604082019050919050565b5f6020820190508181035f830152610f1d81610ee4565b905091905056fea26469706673582212201e32e60fbe904a82c6ecb076349df4d585461b0dcaf6511fbf2c791480fd74a364736f6c63430008150033",
  "immutableReferences": {},
  "source": "// SPDX-License-Identifier: MIT\n\npragma solidity ^0.8.0;\n\ncontract HealthRecords {\n    address owner;\n\n    struct Record {\n        uint256 recordID;\n        string patientName;\n        string diagnosis;\n        string treatment;\n        uint256 timestamp;\n    }\n\n    mapping(uint256 => Record[]) private patientRecords;\n\n    mapping(address => bool) private authorizedProviders;\n\n    modifier onlyOwner() {\n        require(msg.sender == owner, \"Only owner can perform this function\");\n        _;\n    }\n\n    modifier onlyAuthorizedProvider() {\n        require(authorizedProviders[msg.sender], \"Not an authorized provider\");\n        _;\n    }\n\n    constructor() {\n        owner = msg.sender;\n    }\n\n    function getOwner() public view returns (address) {\n        return owner;\n    }\n\n    function authorizedProvider(address provider) public onlyOwner {\n        authorizedProviders[provider] = true;\n    }\n\n    function addRecord(\n        uint256 patientID,\n        string memory patientName,\n        string memory diagnosis,\n        string memory treatment\n    ) public onlyAuthorizedProvider {\n        uint256 recordID = patientRecords[patientID].length + 1;\n        patientRecords[patientID].push(\n            Record(recordID, patientName, diagnosis, treatment, block.timestamp)\n        );\n    }\n\n    function getPatientRecords(\n        uint256 patientID\n    ) public view onlyAuthorizedProvider returns (Record[] memory) {\n        return patientRecords[patientID];\n    }\n}\n",
  "sourcePath": "D:\\Code\\Web3-Healthcare\\server\\contracts\\HealthRecords.sol",
  "compiler": {
    "name": "solc",
    "version": "0.8.21+commit.d9974bed.Emscripten.clang"
  },
  "schemaVersion": "3.4.16",
  "updatedAt": "2025-02-12T17:23:04.649Z",
  "devdoc": {
    "kind": "dev",
    "methods": {},
    "version": 1
  },
  "userdoc": {
    "kind": "user",
    "methods": {},
    "version": 1
  }
}