{
  "contractName": "RoleAssignment",
  "abi": [
    {
      "inputs": [
        {
          "internalType": "address",
          "name": "_rolesStorage",
          "type": "address"
        }
      ],
      "stateMutability": "nonpayable",
      "type": "constructor"
    },
    {
      "anonymous": false,
      "inputs": [
        {
          "indexed": true,
          "internalType": "address",
          "name": "account",
          "type": "address"
        },
        {
          "indexed": false,
          "internalType": "enum RolesStorage.Role",
          "name": "role",
          "type": "uint8"
        }
      ],
      "name": "RoleAssigned",
      "type": "event"
    },
    {
      "inputs": [
        {
          "internalType": "address",
          "name": "account",
          "type": "address"
        },
        {
          "internalType": "enum RolesStorage.Role",
          "name": "role",
          "type": "uint8"
        }
      ],
      "name": "assignRole",
      "outputs": [],
      "stateMutability": "nonpayable",
      "type": "function"
    },
    {
      "inputs": [
        {
          "internalType": "address",
          "name": "account",
          "type": "address"
        }
      ],
      "name": "getRole",
      "outputs": [
        {
          "internalType": "enum RolesStorage.Role",
          "name": "",
          "type": "uint8"
        }
      ],
      "stateMutability": "view",
      "type": "function",
      "constant": true
    }
  ],
  "bytecode": "0x608060405234801561001057600080fd5b506040516108713803806108718339818101604052810190610032919061011b565b806000806101000a81548173ffffffffffffffffffffffffffffffffffffffff021916908373ffffffffffffffffffffffffffffffffffffffff16021790555060008054906101000a900473ffffffffffffffffffffffffffffffffffffffff1673ffffffffffffffffffffffffffffffffffffffff1663571c3e603360016040518363ffffffff1660e01b81526004016100ce929190610162565b600060405180830381600087803b1580156100e857600080fd5b505af11580156100fc573d6000803e3d6000fd5b505050505061023c565b60008151905061011581610225565b92915050565b60006020828403121561012d57600080fd5b600061013b84828501610106565b91505092915050565b61014d8161018b565b82525050565b61015c816101d0565b82525050565b60006040820190506101776000830185610144565b6101846020830184610153565b9392505050565b6000610196826101b0565b9050919050565b60008190506101ab82610211565b919050565b600073ffffffffffffffffffffffffffffffffffffffff82169050919050565b60006101db8261019d565b9050919050565b7f4e487b7100000000000000000000000000000000000000000000000000000000600052602160045260246000fd5b60038110610222576102216101e2565b5b50565b61022e8161018b565b811461023957600080fd5b50565b6106268061024b6000396000f3fe608060405234801561001057600080fd5b50600436106100365760003560e01c8063442767331461003b578063630a195b1461006b575b600080fd5b610055600480360381019061005091906103b3565b610087565b60405161006291906104e3565b60405180910390f35b610085600480360381019061008091906103dc565b61013a565b005b60008060009054906101000a900473ffffffffffffffffffffffffffffffffffffffff1673ffffffffffffffffffffffffffffffffffffffff166344276733836040518263ffffffff1660e01b81526004016100e3919061049f565b60206040518083038186803b1580156100fb57600080fd5b505afa15801561010f573d6000803e3d6000fd5b505050506040513d601f19601f820116820180604052508101906101339190610418565b9050919050565b60016002811115610174577f4e487b7100000000000000000000000000000000000000000000000000000000600052602160045260246000fd5b60008054906101000a900473ffffffffffffffffffffffffffffffffffffffff1673ffffffffffffffffffffffffffffffffffffffff166344276733336040518263ffffffff1660e01b81526004016101cd919061049f565b60206040518083038186803b1580156101e557600080fd5b505afa1580156101f9573d6000803e3d6000fd5b505050506040513d601f19601f8201168201806040525081019061021d9190610418565b6002811115610255577f4e487b7100000000000000000000000000000000000000000000000000000000600052602160045260246000fd5b14610295576040517f08c379a000000000000000000000000000000000000000000000000000000000815260040161028c906104fe565b60405180910390fd5b60008054906101000a900473ffffffffffffffffffffffffffffffffffffffff1673ffffffffffffffffffffffffffffffffffffffff1663571c3e6083836040518363ffffffff1660e01b81526004016102f09291906104ba565b600060405180830381600087803b15801561030a57600080fd5b505af115801561031e573d6000803e3d6000fd5b505050508173ffffffffffffffffffffffffffffffffffffffff167f4ac36fa53f167ceb85964be512e01de2a3b8bdb9862f917da079deeeff689b388260405161036891906104e3565b60405180910390a25050565b600081359050610383816105c9565b92915050565b600081359050610398816105e0565b92915050565b6000815190506103ad816105e0565b92915050565b6000602082840312156103c557600080fd5b60006103d384828501610374565b91505092915050565b600080604083850312156103ef57600080fd5b60006103fd85828601610374565b925050602061040e85828601610389565b9150509250929050565b60006020828403121561042a57600080fd5b60006104388482850161039e565b91505092915050565b61044a8161052f565b82525050565b61045981610574565b82525050565b600061046c601c8361051e565b91507f4f6e6c792061646d696e732063616e2061737369676e20726f6c6573000000006000830152602082019050919050565b60006020820190506104b46000830184610441565b92915050565b60006040820190506104cf6000830185610441565b6104dc6020830184610450565b9392505050565b60006020820190506104f86000830184610450565b92915050565b600060208201905081810360008301526105178161045f565b9050919050565b600082825260208201905092915050565b600061053a82610554565b9050919050565b600081905061054f826105b5565b919050565b600073ffffffffffffffffffffffffffffffffffffffff82169050919050565b600061057f82610541565b9050919050565b7f4e487b7100000000000000000000000000000000000000000000000000000000600052602160045260246000fd5b600381106105c6576105c5610586565b5b50565b6105d28161052f565b81146105dd57600080fd5b50565b600381106105ed57600080fd5b5056fea2646970667358221220db74c4ff4f2e5e3f84ca6f93e41596a489f2d17eb9127d5e326b61e6522f62b364736f6c63430008000033",
  "immutableReferences": {},
  "source": "// SPDX-License-Identifier: MIT\r\npragma solidity ^0.8.0;\r\n\r\nimport \"./RolesStorage.sol\";\r\n\r\ncontract RoleAssignment {\r\n    RolesStorage private rolesStorage;\r\n\r\n    event RoleAssigned(address indexed account, RolesStorage.Role role);\r\n\r\n    modifier onlyAdmin() {\r\n        require(\r\n            rolesStorage.getRole(msg.sender) == RolesStorage.Role.Admin,\r\n            \"Only admins can assign roles\"\r\n        );\r\n        _;\r\n    }\r\n\r\n    constructor(address _rolesStorage) {\r\n        rolesStorage = RolesStorage(_rolesStorage);\r\n        rolesStorage.setRole(msg.sender, RolesStorage.Role.Admin);\r\n    }\r\n\r\n    function assignRole(\r\n        address account,\r\n        RolesStorage.Role role\r\n    ) external onlyAdmin {\r\n        rolesStorage.setRole(account, role);\r\n        emit RoleAssigned(account, role);\r\n    }\r\n\r\n    function getRole(\r\n        address account\r\n    ) external view returns (RolesStorage.Role) {\r\n        return rolesStorage.getRole(account);\r\n    }\r\n}\r\n",
  "sourcePath": "D:\\Code\\Web3-Healthcare\\server\\contracts\\RolesAssignment.sol",
  "compiler": {
    "name": "solc",
    "version": "0.8.0+commit.c7dfd78e.Emscripten.clang"
  },
  "schemaVersion": "3.4.16",
  "updatedAt": "2025-03-25T11:35:02.264Z",
  "networkType": "ethereum",
  "devdoc": {
    "kind": "dev",
    "methods": {},
    "version": 1
  },
  "userdoc": {
    "kind": "user",
    "methods": {},
    "version": 1
  }
}