{
  "contractName": "DataAuthorization",
  "abi": [
    {
      "inputs": [
        {
          "internalType": "address",
          "name": "_rolesStorage",
          "type": "address"
        }
      ],
      "stateMutability": "nonpayable",
      "type": "constructor"
    },
    {
      "anonymous": false,
      "inputs": [
        {
          "indexed": true,
          "internalType": "address",
          "name": "patient",
          "type": "address"
        },
        {
          "indexed": true,
          "internalType": "address",
          "name": "requester",
          "type": "address"
        }
      ],
      "name": "DataAuthorized",
      "type": "event"
    },
    {
      "anonymous": false,
      "inputs": [
        {
          "indexed": true,
          "internalType": "address",
          "name": "requester",
          "type": "address"
        },
        {
          "indexed": true,
          "internalType": "address",
          "name": "patient",
          "type": "address"
        }
      ],
      "name": "DataRequested",
      "type": "event"
    },
    {
      "inputs": [
        {
          "internalType": "address",
          "name": "requester",
          "type": "address"
        },
        {
          "internalType": "address",
          "name": "patient",
          "type": "address"
        }
      ],
      "name": "requestData",
      "outputs": [],
      "stateMutability": "nonpayable",
      "type": "function"
    },
    {
      "inputs": [
        {
          "internalType": "address",
          "name": "patient",
          "type": "address"
        }
      ],
      "name": "checkRequests",
      "outputs": [
        {
          "internalType": "address[]",
          "name": "",
          "type": "address[]"
        }
      ],
      "stateMutability": "view",
      "type": "function",
      "constant": true
    },
    {
      "inputs": [
        {
          "internalType": "address",
          "name": "requester",
          "type": "address"
        },
        {
          "internalType": "address",
          "name": "patient",
          "type": "address"
        }
      ],
      "name": "authorizeData",
      "outputs": [],
      "stateMutability": "nonpayable",
      "type": "function"
    },
    {
      "inputs": [
        {
          "internalType": "address",
          "name": "requester",
          "type": "address"
        }
      ],
      "name": "checkAuthorized",
      "outputs": [
        {
          "internalType": "address[]",
          "name": "",
          "type": "address[]"
        }
      ],
      "stateMutability": "view",
      "type": "function",
      "constant": true
    }
  ],
  "bytecode": "0x60806040523480156200001157600080fd5b506040516200146d3803806200146d833981810160405281019062000037919062000095565b806000806101000a81548173ffffffffffffffffffffffffffffffffffffffff021916908373ffffffffffffffffffffffffffffffffffffffff160217905550506200010f565b6000815190506200008f81620000f5565b92915050565b600060208284031215620000a857600080fd5b6000620000b8848285016200007e565b91505092915050565b6000620000ce82620000d5565b9050919050565b600073ffffffffffffffffffffffffffffffffffffffff82169050919050565b6200010081620000c1565b81146200010c57600080fd5b50565b61134e806200011f6000396000f3fe608060405234801561001057600080fd5b506004361061004c5760003560e01c80631681321114610051578063aa52c7ef1461006d578063e3055f8e14610089578063f7223c9d146100b9575b600080fd5b61006b60048036038101906100669190610dd5565b6100e9565b005b61008760048036038101906100829190610dd5565b6103bb565b005b6100a3600480360381019061009e9190610dac565b610b69565b6040516100b091906110c5565b60405180910390f35b6100d360048036038101906100ce9190610dac565b610c20565b6040516100e091906110c5565b60405180910390f35b600380811115610122577f4e487b7100000000000000000000000000000000000000000000000000000000600052602160045260246000fd5b60008054906101000a900473ffffffffffffffffffffffffffffffffffffffff1673ffffffffffffffffffffffffffffffffffffffff166344276733336040518263ffffffff1660e01b815260040161017b9190611081565b60206040518083038186803b15801561019357600080fd5b505afa1580156101a7573d6000803e3d6000fd5b505050506040513d601f19601f820116820180604052508101906101cb9190610e52565b6003811115610203577f4e487b7100000000000000000000000000000000000000000000000000000000600052602160045260246000fd5b14610243576040517f08c379a000000000000000000000000000000000000000000000000000000000815260040161023a906110e7565b60405180910390fd5b60008054906101000a900473ffffffffffffffffffffffffffffffffffffffff1673ffffffffffffffffffffffffffffffffffffffff1663fe8806f583836040518363ffffffff1660e01b815260040161029e92919061109c565b600060405180830381600087803b1580156102b857600080fd5b505af11580156102cc573d6000803e3d6000fd5b5050505060008054906101000a900473ffffffffffffffffffffffffffffffffffffffff1673ffffffffffffffffffffffffffffffffffffffff1663019ae53783836040518363ffffffff1660e01b815260040161032b92919061109c565b600060405180830381600087803b15801561034557600080fd5b505af1158015610359573d6000803e3d6000fd5b505050508173ffffffffffffffffffffffffffffffffffffffff168173ffffffffffffffffffffffffffffffffffffffff167f5c92e1d7d4bdddab6535b9e72c2ae093c852ebc24d87037f20142034b4d3800160405160405180910390a35050565b600160038111156103f5577f4e487b7100000000000000000000000000000000000000000000000000000000600052602160045260246000fd5b60008054906101000a900473ffffffffffffffffffffffffffffffffffffffff1673ffffffffffffffffffffffffffffffffffffffff166344276733336040518263ffffffff1660e01b815260040161044e9190611081565b60206040518083038186803b15801561046657600080fd5b505afa15801561047a573d6000803e3d6000fd5b505050506040513d601f19601f8201168201806040525081019061049e9190610e52565b60038111156104d6577f4e487b7100000000000000000000000000000000000000000000000000000000600052602160045260246000fd5b14806105fa575060026003811115610517577f4e487b7100000000000000000000000000000000000000000000000000000000600052602160045260246000fd5b60008054906101000a900473ffffffffffffffffffffffffffffffffffffffff1673ffffffffffffffffffffffffffffffffffffffff166344276733336040518263ffffffff1660e01b81526004016105709190611081565b60206040518083038186803b15801561058857600080fd5b505afa15801561059c573d6000803e3d6000fd5b505050506040513d601f19601f820116820180604052508101906105c09190610e52565b60038111156105f8577f4e487b7100000000000000000000000000000000000000000000000000000000600052602160045260246000fd5b145b610639576040517f08c379a000000000000000000000000000000000000000000000000000000000815260040161063090611127565b60405180910390fd5b60016003811115610673577f4e487b7100000000000000000000000000000000000000000000000000000000600052602160045260246000fd5b60008054906101000a900473ffffffffffffffffffffffffffffffffffffffff1673ffffffffffffffffffffffffffffffffffffffff166344276733846040518263ffffffff1660e01b81526004016106cc9190611081565b60206040518083038186803b1580156106e457600080fd5b505afa1580156106f8573d6000803e3d6000fd5b505050506040513d601f19601f8201168201806040525081019061071c9190610e52565b6003811115610754577f4e487b7100000000000000000000000000000000000000000000000000000000600052602160045260246000fd5b1480610878575060026003811115610795577f4e487b7100000000000000000000000000000000000000000000000000000000600052602160045260246000fd5b60008054906101000a900473ffffffffffffffffffffffffffffffffffffffff1673ffffffffffffffffffffffffffffffffffffffff166344276733846040518263ffffffff1660e01b81526004016107ee9190611081565b60206040518083038186803b15801561080657600080fd5b505afa15801561081a573d6000803e3d6000fd5b505050506040513d601f19601f8201168201806040525081019061083e9190610e52565b6003811115610876577f4e487b7100000000000000000000000000000000000000000000000000000000600052602160045260246000fd5b145b6108b7576040517f08c379a00000000000000000000000000000000000000000000000000000000081526004016108ae90611107565b60405180910390fd5b8073ffffffffffffffffffffffffffffffffffffffff168273ffffffffffffffffffffffffffffffffffffffff1614610925576040517f08c379a000000000000000000000000000000000000000000000000000000000815260040161091c90611147565b60405180910390fd5b60008060009054906101000a900473ffffffffffffffffffffffffffffffffffffffff1673ffffffffffffffffffffffffffffffffffffffff166363c1dff7836040518263ffffffff1660e01b81526004016109819190611081565b60006040518083038186803b15801561099957600080fd5b505afa1580156109ad573d6000803e3d6000fd5b505050506040513d6000823e3d601f19601f820116820180604052508101906109d69190610e11565b90506000805b8251811015610a75578473ffffffffffffffffffffffffffffffffffffffff16838281518110610a35577f4e487b7100000000000000000000000000000000000000000000000000000000600052603260045260246000fd5b602002602001015173ffffffffffffffffffffffffffffffffffffffff161415610a625760019150610a75565b8080610a6d9061124a565b9150506109dc565b5080610b095760008054906101000a900473ffffffffffffffffffffffffffffffffffffffff1673ffffffffffffffffffffffffffffffffffffffff1663d8ec731385856040518363ffffffff1660e01b8152600401610ad692919061109c565b600060405180830381600087803b158015610af057600080fd5b505af1158015610b04573d6000803e3d6000fd5b505050505b8273ffffffffffffffffffffffffffffffffffffffff168473ffffffffffffffffffffffffffffffffffffffff167f06d71dbf0a6a4d939f416592e14c039306d173b31c7594414837471415cbf5a260405160405180910390a350505050565b606060008054906101000a900473ffffffffffffffffffffffffffffffffffffffff1673ffffffffffffffffffffffffffffffffffffffff166352c86bdc836040518263ffffffff1660e01b8152600401610bc49190611081565b60006040518083038186803b158015610bdc57600080fd5b505afa158015610bf0573d6000803e3d6000fd5b505050506040513d6000823e3d601f19601f82011682018060405250810190610c199190610e11565b9050919050565b606060008054906101000a900473ffffffffffffffffffffffffffffffffffffffff1673ffffffffffffffffffffffffffffffffffffffff166363c1dff7836040518263ffffffff1660e01b8152600401610c7b9190611081565b60006040518083038186803b158015610c9357600080fd5b505afa158015610ca7573d6000803e3d6000fd5b505050506040513d6000823e3d601f19601f82011682018060405250810190610cd09190610e11565b9050919050565b6000610cea610ce584611198565b611167565b90508083825260208201905082856020860282011115610d0957600080fd5b60005b85811015610d395781610d1f8882610d58565b845260208401935060208301925050600181019050610d0c565b5050509392505050565b600081359050610d52816112f1565b92915050565b600081519050610d67816112f1565b92915050565b600082601f830112610d7e57600080fd5b8151610d8e848260208601610cd7565b91505092915050565b600081519050610da681611308565b92915050565b600060208284031215610dbe57600080fd5b6000610dcc84828501610d43565b91505092915050565b60008060408385031215610de857600080fd5b6000610df685828601610d43565b9250506020610e0785828601610d43565b9150509250929050565b600060208284031215610e2357600080fd5b600082015167ffffffffffffffff811115610e3d57600080fd5b610e4984828501610d6d565b91505092915050565b600060208284031215610e6457600080fd5b6000610e7284828501610d97565b91505092915050565b6000610e878383610e93565b60208301905092915050565b610e9c8161120e565b82525050565b610eab8161120e565b82525050565b6000610ebc826111d4565b610ec681856111ec565b9350610ed1836111c4565b8060005b83811015610f02578151610ee98882610e7b565b9750610ef4836111df565b925050600181019050610ed5565b5085935050505092915050565b6000610f1c6020836111fd565b91507f4f6e6c792070617469656e74732063616e20617574686f72697a6520646174616000830152602082019050919050565b6000610f5c602f836111fd565b91507f446174612063616e2062652072657175657374656420627920646f63746f727360008301527f206f722061646d696e73206f6e6c7900000000000000000000000000000000006020830152604082019050919050565b6000610fc26027836111fd565b91507f4f6e6c7920646f63746f7273206f722061646d696e732063616e20726571756560008301527f73742064617461000000000000000000000000000000000000000000000000006020830152604082019050919050565b6000611028602a836111fd565b91507f52657175657374657220616e642070617469656e742073686f756c642062652060008301527f646966666572656e7421000000000000000000000000000000000000000000006020830152604082019050919050565b60006020820190506110966000830184610ea2565b92915050565b60006040820190506110b16000830185610ea2565b6110be6020830184610ea2565b9392505050565b600060208201905081810360008301526110df8184610eb1565b905092915050565b6000602082019050818103600083015261110081610f0f565b9050919050565b6000602082019050818103600083015261112081610f4f565b9050919050565b6000602082019050818103600083015261114081610fb5565b9050919050565b600060208201905081810360008301526111608161101b565b9050919050565b6000604051905081810181811067ffffffffffffffff8211171561118e5761118d6112c2565b5b8060405250919050565b600067ffffffffffffffff8211156111b3576111b26112c2565b5b602082029050602081019050919050565b6000819050602082019050919050565b600081519050919050565b6000602082019050919050565b600082825260208201905092915050565b600082825260208201905092915050565b600061121982611220565b9050919050565b600073ffffffffffffffffffffffffffffffffffffffff82169050919050565b6000819050919050565b600061125582611240565b91507fffffffffffffffffffffffffffffffffffffffffffffffffffffffffffffffff82141561128857611287611293565b5b600182019050919050565b7f4e487b7100000000000000000000000000000000000000000000000000000000600052601160045260246000fd5b7f4e487b7100000000000000000000000000000000000000000000000000000000600052604160045260246000fd5b6112fa8161120e565b811461130557600080fd5b50565b6004811061131557600080fd5b5056fea26469706673582212205a801ab19b4068bd58e2c0d2a5d7a7effe18e82a5fd45809d9e0b5dc0392569f64736f6c63430008000033",
  "immutableReferences": {},
  "source": "// SPDX-License-Identifier: MIT\r\npragma solidity ^0.8.0;\r\n\r\nimport \"./RolesStorage.sol\";\r\n\r\ncontract DataAuthorization {\r\n    RolesStorage private rolesStorage;\r\n\r\n    event DataRequested(address indexed requester, address indexed patient);\r\n    event DataAuthorized(address indexed patient, address indexed requester);\r\n\r\n    modifier onlyDoctorOrAdmin() {\r\n        require(\r\n            rolesStorage.getRole(msg.sender) == RolesStorage.Role.Doctor ||\r\n                rolesStorage.getRole(msg.sender) == RolesStorage.Role.Admin,\r\n            \"Only doctors or admins can request data\"\r\n        );\r\n        _;\r\n    }\r\n\r\n    modifier onlyPatient() {\r\n        require(\r\n            rolesStorage.getRole(msg.sender) == RolesStorage.Role.Patient,\r\n            \"Only patients can authorize data\"\r\n        );\r\n        _;\r\n    }\r\n\r\n    constructor(address _rolesStorage) {\r\n        rolesStorage = RolesStorage(_rolesStorage);\r\n    }\r\n\r\n    function requestData(\r\n        address requester,\r\n        address patient\r\n    ) external onlyDoctorOrAdmin {\r\n        //Only Doctor/Admin\r\n        require(\r\n            rolesStorage.getRole(requester) == RolesStorage.Role.Doctor ||\r\n                rolesStorage.getRole(requester) == RolesStorage.Role.Admin,\r\n            \"Data can be requested by doctors or admins only\"\r\n        );\r\n        require(\r\n            requester == patient,\r\n            \"Requester and patient should be different!\"\r\n        );\r\n\r\n        address[] memory arr = rolesStorage.getRequest(patient);\r\n        bool exists = false;\r\n\r\n        for (uint i = 0; i < arr.length; i++) {\r\n            if (arr[i] == requester) {\r\n                exists = true;\r\n                break;\r\n            }\r\n        }\r\n\r\n        if (!exists) rolesStorage.setRequest(requester, patient);\r\n        emit DataRequested(requester, patient);\r\n    }\r\n\r\n    function checkRequests(\r\n        address patient\r\n    ) external view returns (address[] memory) {\r\n        return rolesStorage.getRequest(patient);\r\n    }\r\n\r\n    function authorizeData(\r\n        address requester,\r\n        address patient\r\n    ) external onlyPatient {\r\n        rolesStorage.removeRequest(requester, patient);\r\n\r\n        rolesStorage.setAllowedRequest(requester, patient);\r\n        emit DataAuthorized(patient, requester);\r\n    }\r\n\r\n    function checkAuthorized(\r\n        address requester\r\n    ) external view returns (address[] memory) {\r\n        return rolesStorage.getAllowedRequest(requester);\r\n    }\r\n\r\n    //TODO: Another function to remove allowed request once viewed\r\n    //Update: Call removeAllowedRequest in that function when accessed\r\n}\r\n",
  "sourcePath": "D:\\Code\\Web3-Healthcare\\server\\src\\contracts\\DataAuthorization.sol",
  "compiler": {
    "name": "solc",
    "version": "0.8.0+commit.c7dfd78e.Emscripten.clang"
  },
  "schemaVersion": "3.4.16",
  "updatedAt": "2025-04-05T11:55:05.625Z",
  "networkType": "ethereum",
  "devdoc": {
    "kind": "dev",
    "methods": {},
    "version": 1
  },
  "userdoc": {
    "kind": "user",
    "methods": {},
    "version": 1
  }
}