{
  "contractName": "DataAuthorization",
  "abi": [
    {
      "inputs": [
        {
          "internalType": "address",
          "name": "_rolesStorage",
          "type": "address"
        }
      ],
      "stateMutability": "nonpayable",
      "type": "constructor"
    },
    {
      "anonymous": false,
      "inputs": [
        {
          "indexed": true,
          "internalType": "address",
          "name": "patient",
          "type": "address"
        },
        {
          "indexed": true,
          "internalType": "address",
          "name": "requester",
          "type": "address"
        }
      ],
      "name": "DataAuthorized",
      "type": "event"
    },
    {
      "anonymous": false,
      "inputs": [
        {
          "indexed": true,
          "internalType": "address",
          "name": "requester",
          "type": "address"
        },
        {
          "indexed": true,
          "internalType": "address",
          "name": "patient",
          "type": "address"
        }
      ],
      "name": "DataRequested",
      "type": "event"
    },
    {
      "inputs": [
        {
          "internalType": "address",
          "name": "requester",
          "type": "address"
        },
        {
          "internalType": "address",
          "name": "patient",
          "type": "address"
        }
      ],
      "name": "requestData",
      "outputs": [],
      "stateMutability": "nonpayable",
      "type": "function"
    },
    {
      "inputs": [
        {
          "internalType": "address",
          "name": "patient",
          "type": "address"
        }
      ],
      "name": "checkRequests",
      "outputs": [
        {
          "internalType": "address[]",
          "name": "",
          "type": "address[]"
        }
      ],
      "stateMutability": "view",
      "type": "function",
      "constant": true
    },
    {
      "inputs": [
        {
          "internalType": "address",
          "name": "requester",
          "type": "address"
        },
        {
          "internalType": "address",
          "name": "patient",
          "type": "address"
        }
      ],
      "name": "authorizeData",
      "outputs": [],
      "stateMutability": "nonpayable",
      "type": "function"
    },
    {
      "inputs": [
        {
          "internalType": "address",
          "name": "requester",
          "type": "address"
        }
      ],
      "name": "checkAuthorized",
      "outputs": [
        {
          "internalType": "address[]",
          "name": "",
          "type": "address[]"
        }
      ],
      "stateMutability": "view",
      "type": "function",
      "constant": true
    }
  ],
  "bytecode": "0x608060405234801561001057600080fd5b506040516110643803806110648339818101604052810190610032919061008d565b806000806101000a81548173ffffffffffffffffffffffffffffffffffffffff021916908373ffffffffffffffffffffffffffffffffffffffff160217905550506100ff565b600081519050610087816100e8565b92915050565b60006020828403121561009f57600080fd5b60006100ad84828501610078565b91505092915050565b60006100c1826100c8565b9050919050565b600073ffffffffffffffffffffffffffffffffffffffff82169050919050565b6100f1816100b6565b81146100fc57600080fd5b50565b610f568061010e6000396000f3fe608060405234801561001057600080fd5b506004361061004c5760003560e01c80631681321114610051578063aa52c7ef1461006d578063e3055f8e14610089578063f7223c9d146100b9575b600080fd5b61006b60048036038101906100669190610ae9565b6100e9565b005b61008760048036038101906100829190610ae9565b6103bb565b005b6100a3600480360381019061009e9190610ac0565b61087d565b6040516100b09190610d0d565b60405180910390f35b6100d360048036038101906100ce9190610ac0565b610934565b6040516100e09190610d0d565b60405180910390f35b600380811115610122577f4e487b7100000000000000000000000000000000000000000000000000000000600052602160045260246000fd5b60008054906101000a900473ffffffffffffffffffffffffffffffffffffffff1673ffffffffffffffffffffffffffffffffffffffff166344276733336040518263ffffffff1660e01b815260040161017b9190610cc9565b60206040518083038186803b15801561019357600080fd5b505afa1580156101a7573d6000803e3d6000fd5b505050506040513d601f19601f820116820180604052508101906101cb9190610b66565b6003811115610203577f4e487b7100000000000000000000000000000000000000000000000000000000600052602160045260246000fd5b14610243576040517f08c379a000000000000000000000000000000000000000000000000000000000815260040161023a90610d2f565b60405180910390fd5b60008054906101000a900473ffffffffffffffffffffffffffffffffffffffff1673ffffffffffffffffffffffffffffffffffffffff1663fe8806f583836040518363ffffffff1660e01b815260040161029e929190610ce4565b600060405180830381600087803b1580156102b857600080fd5b505af11580156102cc573d6000803e3d6000fd5b5050505060008054906101000a900473ffffffffffffffffffffffffffffffffffffffff1673ffffffffffffffffffffffffffffffffffffffff1663019ae53783836040518363ffffffff1660e01b815260040161032b929190610ce4565b600060405180830381600087803b15801561034557600080fd5b505af1158015610359573d6000803e3d6000fd5b505050508173ffffffffffffffffffffffffffffffffffffffff168173ffffffffffffffffffffffffffffffffffffffff167f5c92e1d7d4bdddab6535b9e72c2ae093c852ebc24d87037f20142034b4d3800160405160405180910390a35050565b600160038111156103f5577f4e487b7100000000000000000000000000000000000000000000000000000000600052602160045260246000fd5b60008054906101000a900473ffffffffffffffffffffffffffffffffffffffff1673ffffffffffffffffffffffffffffffffffffffff166344276733336040518263ffffffff1660e01b815260040161044e9190610cc9565b60206040518083038186803b15801561046657600080fd5b505afa15801561047a573d6000803e3d6000fd5b505050506040513d601f19601f8201168201806040525081019061049e9190610b66565b60038111156104d6577f4e487b7100000000000000000000000000000000000000000000000000000000600052602160045260246000fd5b14806105fa575060026003811115610517577f4e487b7100000000000000000000000000000000000000000000000000000000600052602160045260246000fd5b60008054906101000a900473ffffffffffffffffffffffffffffffffffffffff1673ffffffffffffffffffffffffffffffffffffffff166344276733336040518263ffffffff1660e01b81526004016105709190610cc9565b60206040518083038186803b15801561058857600080fd5b505afa15801561059c573d6000803e3d6000fd5b505050506040513d601f19601f820116820180604052508101906105c09190610b66565b60038111156105f8577f4e487b7100000000000000000000000000000000000000000000000000000000600052602160045260246000fd5b145b610639576040517f08c379a000000000000000000000000000000000000000000000000000000000815260040161063090610d4f565b60405180910390fd5b60008060009054906101000a900473ffffffffffffffffffffffffffffffffffffffff1673ffffffffffffffffffffffffffffffffffffffff166363c1dff7836040518263ffffffff1660e01b81526004016106959190610cc9565b60006040518083038186803b1580156106ad57600080fd5b505afa1580156106c1573d6000803e3d6000fd5b505050506040513d6000823e3d601f19601f820116820180604052508101906106ea9190610b25565b90506000805b8251811015610789578473ffffffffffffffffffffffffffffffffffffffff16838281518110610749577f4e487b7100000000000000000000000000000000000000000000000000000000600052603260045260246000fd5b602002602001015173ffffffffffffffffffffffffffffffffffffffff1614156107765760019150610789565b808061078190610e52565b9150506106f0565b508061081d5760008054906101000a900473ffffffffffffffffffffffffffffffffffffffff1673ffffffffffffffffffffffffffffffffffffffff1663d8ec731385856040518363ffffffff1660e01b81526004016107ea929190610ce4565b600060405180830381600087803b15801561080457600080fd5b505af1158015610818573d6000803e3d6000fd5b505050505b8273ffffffffffffffffffffffffffffffffffffffff168473ffffffffffffffffffffffffffffffffffffffff167f06d71dbf0a6a4d939f416592e14c039306d173b31c7594414837471415cbf5a260405160405180910390a350505050565b606060008054906101000a900473ffffffffffffffffffffffffffffffffffffffff1673ffffffffffffffffffffffffffffffffffffffff166352c86bdc836040518263ffffffff1660e01b81526004016108d89190610cc9565b60006040518083038186803b1580156108f057600080fd5b505afa158015610904573d6000803e3d6000fd5b505050506040513d6000823e3d601f19601f8201168201806040525081019061092d9190610b25565b9050919050565b606060008054906101000a900473ffffffffffffffffffffffffffffffffffffffff1673ffffffffffffffffffffffffffffffffffffffff166363c1dff7836040518263ffffffff1660e01b815260040161098f9190610cc9565b60006040518083038186803b1580156109a757600080fd5b505afa1580156109bb573d6000803e3d6000fd5b505050506040513d6000823e3d601f19601f820116820180604052508101906109e49190610b25565b9050919050565b60006109fe6109f984610da0565b610d6f565b90508083825260208201905082856020860282011115610a1d57600080fd5b60005b85811015610a4d5781610a338882610a6c565b845260208401935060208301925050600181019050610a20565b5050509392505050565b600081359050610a6681610ef9565b92915050565b600081519050610a7b81610ef9565b92915050565b600082601f830112610a9257600080fd5b8151610aa28482602086016109eb565b91505092915050565b600081519050610aba81610f10565b92915050565b600060208284031215610ad257600080fd5b6000610ae084828501610a57565b91505092915050565b60008060408385031215610afc57600080fd5b6000610b0a85828601610a57565b9250506020610b1b85828601610a57565b9150509250929050565b600060208284031215610b3757600080fd5b600082015167ffffffffffffffff811115610b5157600080fd5b610b5d84828501610a81565b91505092915050565b600060208284031215610b7857600080fd5b6000610b8684828501610aab565b91505092915050565b6000610b9b8383610ba7565b60208301905092915050565b610bb081610e16565b82525050565b610bbf81610e16565b82525050565b6000610bd082610ddc565b610bda8185610df4565b9350610be583610dcc565b8060005b83811015610c16578151610bfd8882610b8f565b9750610c0883610de7565b925050600181019050610be9565b5085935050505092915050565b6000610c30602083610e05565b91507f4f6e6c792070617469656e74732063616e20617574686f72697a6520646174616000830152602082019050919050565b6000610c70602783610e05565b91507f4f6e6c7920646f63746f7273206f722061646d696e732063616e20726571756560008301527f73742064617461000000000000000000000000000000000000000000000000006020830152604082019050919050565b6000602082019050610cde6000830184610bb6565b92915050565b6000604082019050610cf96000830185610bb6565b610d066020830184610bb6565b9392505050565b60006020820190508181036000830152610d278184610bc5565b905092915050565b60006020820190508181036000830152610d4881610c23565b9050919050565b60006020820190508181036000830152610d6881610c63565b9050919050565b6000604051905081810181811067ffffffffffffffff82111715610d9657610d95610eca565b5b8060405250919050565b600067ffffffffffffffff821115610dbb57610dba610eca565b5b602082029050602081019050919050565b6000819050602082019050919050565b600081519050919050565b6000602082019050919050565b600082825260208201905092915050565b600082825260208201905092915050565b6000610e2182610e28565b9050919050565b600073ffffffffffffffffffffffffffffffffffffffff82169050919050565b6000819050919050565b6000610e5d82610e48565b91507fffffffffffffffffffffffffffffffffffffffffffffffffffffffffffffffff821415610e9057610e8f610e9b565b5b600182019050919050565b7f4e487b7100000000000000000000000000000000000000000000000000000000600052601160045260246000fd5b7f4e487b7100000000000000000000000000000000000000000000000000000000600052604160045260246000fd5b610f0281610e16565b8114610f0d57600080fd5b50565b60048110610f1d57600080fd5b5056fea2646970667358221220fdcd7f7a6311b0e2e7a8ccf121e6a34d66b1fdad2154de5451f7022510c7960164736f6c63430008000033",
  "immutableReferences": {},
  "source": "// SPDX-License-Identifier: MIT\r\npragma solidity ^0.8.0;\r\n\r\nimport \"./RolesStorage.sol\";\r\n\r\ncontract DataAuthorization {\r\n    RolesStorage private rolesStorage;\r\n\r\n    event DataRequested(address indexed requester, address indexed patient);\r\n    event DataAuthorized(address indexed patient, address indexed requester);\r\n\r\n    modifier onlyDoctorOrAdmin() {\r\n        require(\r\n            rolesStorage.getRole(msg.sender) == RolesStorage.Role.Doctor ||\r\n                rolesStorage.getRole(msg.sender) == RolesStorage.Role.Admin,\r\n            \"Only doctors or admins can request data\"\r\n        );\r\n        _;\r\n    }\r\n\r\n    modifier onlyPatient() {\r\n        require(\r\n            rolesStorage.getRole(msg.sender) == RolesStorage.Role.Patient,\r\n            \"Only patients can authorize data\"\r\n        );\r\n        _;\r\n    }\r\n\r\n    constructor(address _rolesStorage) {\r\n        rolesStorage = RolesStorage(_rolesStorage);\r\n    }\r\n\r\n    function requestData(\r\n        address requester,\r\n        address patient\r\n    ) external onlyDoctorOrAdmin {\r\n        address[] memory arr = rolesStorage.getRequest(patient);\r\n        bool exists = false;\r\n\r\n        for (uint i = 0; i < arr.length; i++) {\r\n            if (arr[i] == requester) {\r\n                exists = true;\r\n                break;\r\n            }\r\n        }\r\n\r\n        if (!exists) rolesStorage.setRequest(requester, patient);\r\n        emit DataRequested(requester, patient);\r\n    }\r\n\r\n    function checkRequests(\r\n        address patient\r\n    ) external view returns (address[] memory) {\r\n        return rolesStorage.getRequest(patient);\r\n    }\r\n\r\n    function authorizeData(\r\n        address requester,\r\n        address patient\r\n    ) external onlyPatient {\r\n        rolesStorage.removeRequest(requester, patient);\r\n\r\n        rolesStorage.setAllowedRequest(requester, patient);\r\n        emit DataAuthorized(patient, requester);\r\n    }\r\n\r\n    function checkAuthorized(\r\n        address requester\r\n    ) external view returns (address[] memory) {\r\n        return rolesStorage.getAllowedRequest(requester);\r\n    }\r\n\r\n    //TODO: Another function to remove allowed request once viewed\r\n    //Update: Call removeAllowedRequest in that function when accessed\r\n}\r\n",
  "sourcePath": "D:\\Code\\Web3-Healthcare\\server\\src\\contracts\\DataAuthorization.sol",
  "compiler": {
    "name": "solc",
    "version": "0.8.0+commit.c7dfd78e.Emscripten.clang"
  },
  "schemaVersion": "3.4.16",
  "updatedAt": "2025-03-29T03:36:09.230Z",
  "networkType": "ethereum",
  "devdoc": {
    "kind": "dev",
    "methods": {},
    "version": 1
  },
  "userdoc": {
    "kind": "user",
    "methods": {},
    "version": 1
  }
}