{
  "contractName": "DataAuthorization",
  "abi": [
    {
      "inputs": [
        {
          "internalType": "address",
          "name": "_rolesStorage",
          "type": "address"
        }
      ],
      "stateMutability": "nonpayable",
      "type": "constructor"
    },
    {
      "anonymous": false,
      "inputs": [
        {
          "indexed": true,
          "internalType": "address",
          "name": "patient",
          "type": "address"
        },
        {
          "indexed": true,
          "internalType": "address",
          "name": "requester",
          "type": "address"
        }
      ],
      "name": "DataAuthorized",
      "type": "event"
    },
    {
      "anonymous": false,
      "inputs": [
        {
          "indexed": true,
          "internalType": "address",
          "name": "requester",
          "type": "address"
        },
        {
          "indexed": true,
          "internalType": "address",
          "name": "patient",
          "type": "address"
        }
      ],
      "name": "DataRequested",
      "type": "event"
    },
    {
      "inputs": [
        {
          "internalType": "address",
          "name": "patient",
          "type": "address"
        }
      ],
      "name": "requestData",
      "outputs": [],
      "stateMutability": "nonpayable",
      "type": "function"
    },
    {
      "inputs": [
        {
          "internalType": "address",
          "name": "requester",
          "type": "address"
        }
      ],
      "name": "authorizeData",
      "outputs": [],
      "stateMutability": "nonpayable",
      "type": "function"
    },
    {
      "inputs": [
        {
          "internalType": "address",
          "name": "requester",
          "type": "address"
        },
        {
          "internalType": "address",
          "name": "patient",
          "type": "address"
        }
      ],
      "name": "isAuthorized",
      "outputs": [
        {
          "internalType": "bool",
          "name": "",
          "type": "bool"
        }
      ],
      "stateMutability": "view",
      "type": "function",
      "constant": true
    }
  ],
  "bytecode": "0x608060405234801561001057600080fd5b50604051610cb8380380610cb88339818101604052810190610032919061008d565b806000806101000a81548173ffffffffffffffffffffffffffffffffffffffff021916908373ffffffffffffffffffffffffffffffffffffffff160217905550506100ff565b600081519050610087816100e8565b92915050565b60006020828403121561009f57600080fd5b60006100ad84828501610078565b91505092915050565b60006100c1826100c8565b9050919050565b600073ffffffffffffffffffffffffffffffffffffffff82169050919050565b6100f1816100b6565b81146100fc57600080fd5b50565b610baa8061010e6000396000f3fe608060405234801561001057600080fd5b50600436106100415760003560e01c806365e4ad9e146100465780639dd4cc5d14610076578063cd4a683d14610092575b600080fd5b610060600480360381019061005b91906108bf565b6100ae565b60405161006d9190610a8c565b60405180910390f35b610090600480360381019061008b9190610896565b610164565b005b6100ac60048036038101906100a79190610896565b6104cf565b005b60008060009054906101000a900473ffffffffffffffffffffffffffffffffffffffff1673ffffffffffffffffffffffffffffffffffffffff16636e86f1b884846040518363ffffffff1660e01b815260040161010c929190610a2c565b60206040518083038186803b15801561012457600080fd5b505afa158015610138573d6000803e3d6000fd5b505050506040513d601f19601f8201168201806040525081019061015c91906108fb565b905092915050565b6001600381111561019e577f4e487b7100000000000000000000000000000000000000000000000000000000600052602160045260246000fd5b60008054906101000a900473ffffffffffffffffffffffffffffffffffffffff1673ffffffffffffffffffffffffffffffffffffffff166344276733336040518263ffffffff1660e01b81526004016101f79190610a11565b60206040518083038186803b15801561020f57600080fd5b505afa158015610223573d6000803e3d6000fd5b505050506040513d601f19601f820116820180604052508101906102479190610924565b600381111561027f577f4e487b7100000000000000000000000000000000000000000000000000000000600052602160045260246000fd5b14806103a35750600260038111156102c0577f4e487b7100000000000000000000000000000000000000000000000000000000600052602160045260246000fd5b60008054906101000a900473ffffffffffffffffffffffffffffffffffffffff1673ffffffffffffffffffffffffffffffffffffffff166344276733336040518263ffffffff1660e01b81526004016103199190610a11565b60206040518083038186803b15801561033157600080fd5b505afa158015610345573d6000803e3d6000fd5b505050506040513d601f19601f820116820180604052508101906103699190610924565b60038111156103a1577f4e487b7100000000000000000000000000000000000000000000000000000000600052602160045260246000fd5b145b6103e2576040517f08c379a00000000000000000000000000000000000000000000000000000000081526004016103d990610ac7565b60405180910390fd5b60008054906101000a900473ffffffffffffffffffffffffffffffffffffffff1673ffffffffffffffffffffffffffffffffffffffff16634f9b5ebf338360016040518463ffffffff1660e01b815260040161044093929190610a55565b600060405180830381600087803b15801561045a57600080fd5b505af115801561046e573d6000803e3d6000fd5b505050508073ffffffffffffffffffffffffffffffffffffffff163373ffffffffffffffffffffffffffffffffffffffff167f06d71dbf0a6a4d939f416592e14c039306d173b31c7594414837471415cbf5a260405160405180910390a350565b600380811115610508577f4e487b7100000000000000000000000000000000000000000000000000000000600052602160045260246000fd5b60008054906101000a900473ffffffffffffffffffffffffffffffffffffffff1673ffffffffffffffffffffffffffffffffffffffff166344276733336040518263ffffffff1660e01b81526004016105619190610a11565b60206040518083038186803b15801561057957600080fd5b505afa15801561058d573d6000803e3d6000fd5b505050506040513d601f19601f820116820180604052508101906105b19190610924565b60038111156105e9577f4e487b7100000000000000000000000000000000000000000000000000000000600052602160045260246000fd5b14610629576040517f08c379a000000000000000000000000000000000000000000000000000000000815260040161062090610aa7565b60405180910390fd5b60008054906101000a900473ffffffffffffffffffffffffffffffffffffffff1673ffffffffffffffffffffffffffffffffffffffff1663bfd7453482336040518363ffffffff1660e01b8152600401610684929190610a2c565b60206040518083038186803b15801561069c57600080fd5b505afa1580156106b0573d6000803e3d6000fd5b505050506040513d601f19601f820116820180604052508101906106d491906108fb565b1561076a5760008054906101000a900473ffffffffffffffffffffffffffffffffffffffff1673ffffffffffffffffffffffffffffffffffffffff16634f9b5ebf823360006040518463ffffffff1660e01b815260040161073793929190610a55565b600060405180830381600087803b15801561075157600080fd5b505af1158015610765573d6000803e3d6000fd5b505050505b60008054906101000a900473ffffffffffffffffffffffffffffffffffffffff1673ffffffffffffffffffffffffffffffffffffffff166304e279b5823360016040518463ffffffff1660e01b81526004016107c893929190610a55565b600060405180830381600087803b1580156107e257600080fd5b505af11580156107f6573d6000803e3d6000fd5b505050508073ffffffffffffffffffffffffffffffffffffffff163373ffffffffffffffffffffffffffffffffffffffff167f5c92e1d7d4bdddab6535b9e72c2ae093c852ebc24d87037f20142034b4d3800160405160405180910390a350565b60008135905061086681610b36565b92915050565b60008151905061087b81610b4d565b92915050565b60008151905061089081610b64565b92915050565b6000602082840312156108a857600080fd5b60006108b684828501610857565b91505092915050565b600080604083850312156108d257600080fd5b60006108e085828601610857565b92505060206108f185828601610857565b9150509250929050565b60006020828403121561090d57600080fd5b600061091b8482850161086c565b91505092915050565b60006020828403121561093657600080fd5b600061094484828501610881565b91505092915050565b61095681610af8565b82525050565b61096581610b0a565b82525050565b6000610978602083610ae7565b91507f4f6e6c792070617469656e74732063616e20617574686f72697a6520646174616000830152602082019050919050565b60006109b8602783610ae7565b91507f4f6e6c7920646f63746f7273206f722061646d696e732063616e20726571756560008301527f73742064617461000000000000000000000000000000000000000000000000006020830152604082019050919050565b6000602082019050610a26600083018461094d565b92915050565b6000604082019050610a41600083018561094d565b610a4e602083018461094d565b9392505050565b6000606082019050610a6a600083018661094d565b610a77602083018561094d565b610a84604083018461095c565b949350505050565b6000602082019050610aa1600083018461095c565b92915050565b60006020820190508181036000830152610ac08161096b565b9050919050565b60006020820190508181036000830152610ae0816109ab565b9050919050565b600082825260208201905092915050565b6000610b0382610b16565b9050919050565b60008115159050919050565b600073ffffffffffffffffffffffffffffffffffffffff82169050919050565b610b3f81610af8565b8114610b4a57600080fd5b50565b610b5681610b0a565b8114610b6157600080fd5b50565b60048110610b7157600080fd5b5056fea264697066735822122081c11b325bd0c1a33742598c0f2d6683ec71146dad48d10fc8fcfda603a73c5f64736f6c63430008000033",
  "immutableReferences": {},
  "source": "// SPDX-License-Identifier: MIT\r\npragma solidity ^0.8.0;\r\n\r\nimport \"./RolesStorage.sol\";\r\n\r\ncontract DataAuthorization {\r\n    RolesStorage private rolesStorage;\r\n\r\n    event DataRequested(address indexed requester, address indexed patient);\r\n    event DataAuthorized(address indexed patient, address indexed requester);\r\n\r\n    modifier onlyDoctorOrAdmin() {\r\n        require(\r\n            rolesStorage.getRole(msg.sender) == RolesStorage.Role.Doctor ||\r\n                rolesStorage.getRole(msg.sender) == RolesStorage.Role.Admin,\r\n            \"Only doctors or admins can request data\"\r\n        );\r\n        _;\r\n    }\r\n\r\n    modifier onlyPatient() {\r\n        require(\r\n            rolesStorage.getRole(msg.sender) == RolesStorage.Role.Patient,\r\n            \"Only patients can authorize data\"\r\n        );\r\n        _;\r\n    }\r\n\r\n    constructor(address _rolesStorage) {\r\n        rolesStorage = RolesStorage(_rolesStorage);\r\n    }\r\n\r\n    function requestData(address patient) external onlyDoctorOrAdmin {\r\n        rolesStorage.setRequest(msg.sender, patient, true);\r\n        emit DataRequested(msg.sender, patient);\r\n    }\r\n\r\n    function authorizeData(address requester) external onlyPatient {\r\n        if (rolesStorage.getRequest(requester, msg.sender)) {\r\n            rolesStorage.setRequest(requester, msg.sender, false);\r\n        }\r\n        rolesStorage.setAllowedRequest(requester, msg.sender, true);\r\n        emit DataAuthorized(msg.sender, requester);\r\n    }\r\n\r\n    function isAuthorized(\r\n        address requester,\r\n        address patient\r\n    ) external view returns (bool) {\r\n        return rolesStorage.getAllowedRequest(requester, patient);\r\n    }\r\n}\r\n",
  "sourcePath": "D:\\Code\\Web3-Healthcare\\server\\src\\contracts\\DataAuthorization.sol",
  "compiler": {
    "name": "solc",
    "version": "0.8.0+commit.c7dfd78e.Emscripten.clang"
  },
  "schemaVersion": "3.4.16",
  "updatedAt": "2025-03-27T17:02:37.386Z",
  "networkType": "ethereum",
  "devdoc": {
    "kind": "dev",
    "methods": {},
    "version": 1
  },
  "userdoc": {
    "kind": "user",
    "methods": {},
    "version": 1
  }
}