{
  "contractName": "RolesStorage",
  "abi": [
    {
      "inputs": [
        {
          "internalType": "address",
          "name": "",
          "type": "address"
        }
      ],
      "name": "roles",
      "outputs": [
        {
          "internalType": "enum RolesStorage.Role",
          "name": "",
          "type": "uint8"
        }
      ],
      "stateMutability": "view",
      "type": "function",
      "constant": true
    },
    {
      "inputs": [
        {
          "internalType": "address",
          "name": "account",
          "type": "address"
        },
        {
          "internalType": "enum RolesStorage.Role",
          "name": "role",
          "type": "uint8"
        }
      ],
      "name": "setRole",
      "outputs": [],
      "stateMutability": "nonpayable",
      "type": "function"
    },
    {
      "inputs": [
        {
          "internalType": "address",
          "name": "account",
          "type": "address"
        }
      ],
      "name": "getRole",
      "outputs": [
        {
          "internalType": "enum RolesStorage.Role",
          "name": "",
          "type": "uint8"
        }
      ],
      "stateMutability": "view",
      "type": "function",
      "constant": true
    },
    {
      "inputs": [
        {
          "internalType": "address",
          "name": "requester",
          "type": "address"
        },
        {
          "internalType": "address",
          "name": "patient",
          "type": "address"
        },
        {
          "internalType": "bool",
          "name": "status",
          "type": "bool"
        }
      ],
      "name": "setRequest",
      "outputs": [],
      "stateMutability": "nonpayable",
      "type": "function"
    },
    {
      "inputs": [
        {
          "internalType": "address",
          "name": "requester",
          "type": "address"
        },
        {
          "internalType": "address",
          "name": "patient",
          "type": "address"
        }
      ],
      "name": "getRequest",
      "outputs": [
        {
          "internalType": "bool",
          "name": "",
          "type": "bool"
        }
      ],
      "stateMutability": "view",
      "type": "function",
      "constant": true
    },
    {
      "inputs": [
        {
          "internalType": "address",
          "name": "requester",
          "type": "address"
        },
        {
          "internalType": "address",
          "name": "patient",
          "type": "address"
        },
        {
          "internalType": "bool",
          "name": "status",
          "type": "bool"
        }
      ],
      "name": "setAllowedRequest",
      "outputs": [],
      "stateMutability": "nonpayable",
      "type": "function"
    },
    {
      "inputs": [
        {
          "internalType": "address",
          "name": "requester",
          "type": "address"
        },
        {
          "internalType": "address",
          "name": "patient",
          "type": "address"
        }
      ],
      "name": "getAllowedRequest",
      "outputs": [
        {
          "internalType": "bool",
          "name": "",
          "type": "bool"
        }
      ],
      "stateMutability": "view",
      "type": "function",
      "constant": true
    },
    {
      "inputs": [
        {
          "internalType": "address",
          "name": "patient",
          "type": "address"
        },
        {
          "internalType": "enum RolesStorage.DataType",
          "name": "dataType",
          "type": "uint8"
        }
      ],
      "name": "addPatientData",
      "outputs": [],
      "stateMutability": "nonpayable",
      "type": "function"
    },
    {
      "inputs": [
        {
          "internalType": "address",
          "name": "patient",
          "type": "address"
        }
      ],
      "name": "getPatientData",
      "outputs": [
        {
          "internalType": "enum RolesStorage.DataType[]",
          "name": "",
          "type": "uint8[]"
        }
      ],
      "stateMutability": "view",
      "type": "function",
      "constant": true
    }
  ],
  "bytecode": "0x608060405234801561001057600080fd5b50610b1b806100206000396000f3fe608060405234801561001057600080fd5b50600436106100935760003560e01c80634f9b5ebf116100665780634f9b5ebf14610130578063571c3e601461014c5780636e86f1b8146101685780639937464214610198578063bfd74534146101c857610093565b806304e279b514610098578063106b230f146100b457806344276733146100d057806348e8185214610100575b600080fd5b6100b260048036038101906100ad91906107bd565b6101f8565b005b6100ce60048036038101906100c9919061080c565b610291565b005b6100ea60048036038101906100e59190610758565b61034c565b6040516100f79190610964565b60405180910390f35b61011a60048036038101906101159190610758565b6103a1565b6040516101279190610927565b60405180910390f35b61014a600480360381019061014591906107bd565b610493565b005b61016660048036038101906101619190610848565b61052c565b005b610182600480360381019061017d9190610781565b6105bc565b60405161018f9190610949565b60405180910390f35b6101b260048036038101906101ad9190610758565b610650565b6040516101bf9190610964565b60405180910390f35b6101e260048036038101906101dd9190610781565b610670565b6040516101ef9190610949565b60405180910390f35b80600260008573ffffffffffffffffffffffffffffffffffffffff1673ffffffffffffffffffffffffffffffffffffffff16815260200190815260200160002060008473ffffffffffffffffffffffffffffffffffffffff1673ffffffffffffffffffffffffffffffffffffffff16815260200190815260200160002060006101000a81548160ff021916908315150217905550505050565b600360008373ffffffffffffffffffffffffffffffffffffffff1673ffffffffffffffffffffffffffffffffffffffff1681526020019081526020016000208190806001815401808255809150506001900390600052602060002090602091828204019190069091909190916101000a81548160ff02191690836002811115610343577f4e487b7100000000000000000000000000000000000000000000000000000000600052602160045260246000fd5b02179055505050565b60008060008373ffffffffffffffffffffffffffffffffffffffff1673ffffffffffffffffffffffffffffffffffffffff16815260200190815260200160002060009054906101000a900460ff169050919050565b6060600360008373ffffffffffffffffffffffffffffffffffffffff1673ffffffffffffffffffffffffffffffffffffffff16815260200190815260200160002080548060200260200160405190810160405280929190818152602001828054801561048757602002820191906000526020600020906000905b82829054906101000a900460ff166002811115610461577f4e487b7100000000000000000000000000000000000000000000000000000000600052602160045260246000fd5b8152602001906001019060208260000104928301926001038202915080841161041b5790505b50505050509050919050565b80600160008573ffffffffffffffffffffffffffffffffffffffff1673ffffffffffffffffffffffffffffffffffffffff16815260200190815260200160002060008473ffffffffffffffffffffffffffffffffffffffff1673ffffffffffffffffffffffffffffffffffffffff16815260200190815260200160002060006101000a81548160ff021916908315150217905550505050565b806000808473ffffffffffffffffffffffffffffffffffffffff1673ffffffffffffffffffffffffffffffffffffffff16815260200190815260200160002060006101000a81548160ff021916908360038111156105b3577f4e487b7100000000000000000000000000000000000000000000000000000000600052602160045260246000fd5b02179055505050565b6000600260008473ffffffffffffffffffffffffffffffffffffffff1673ffffffffffffffffffffffffffffffffffffffff16815260200190815260200160002060008373ffffffffffffffffffffffffffffffffffffffff1673ffffffffffffffffffffffffffffffffffffffff16815260200190815260200160002060009054906101000a900460ff16905092915050565b60006020528060005260406000206000915054906101000a900460ff1681565b6000600160008473ffffffffffffffffffffffffffffffffffffffff1673ffffffffffffffffffffffffffffffffffffffff16815260200190815260200160002060008373ffffffffffffffffffffffffffffffffffffffff1673ffffffffffffffffffffffffffffffffffffffff16815260200190815260200160002060009054906101000a900460ff16905092915050565b60008135905061071381610a97565b92915050565b60008135905061072881610aae565b92915050565b60008135905061073d81610ac5565b92915050565b60008135905061075281610ad5565b92915050565b60006020828403121561076a57600080fd5b600061077884828501610704565b91505092915050565b6000806040838503121561079457600080fd5b60006107a285828601610704565b92505060206107b385828601610704565b9150509250929050565b6000806000606084860312156107d257600080fd5b60006107e086828701610704565b93505060206107f186828701610704565b925050604061080286828701610719565b9150509250925092565b6000806040838503121561081f57600080fd5b600061082d85828601610704565b925050602061083e8582860161072e565b9150509250929050565b6000806040838503121561085b57600080fd5b600061086985828601610704565b925050602061087a85828601610743565b9150509250929050565b60006108908383610909565b60208301905092915050565b60006108a78261098f565b6108b181856109a7565b93506108bc8361097f565b8060005b838110156108ed5781516108d48882610884565b97506108df8361099a565b9250506001810190506108c0565b5085935050505092915050565b610903816109ca565b82525050565b61091281610a1c565b82525050565b61092181610a2e565b82525050565b60006020820190508181036000830152610941818461089c565b905092915050565b600060208201905061095e60008301846108fa565b92915050565b60006020820190506109796000830184610918565b92915050565b6000819050602082019050919050565b600081519050919050565b6000602082019050919050565b600082825260208201905092915050565b60006109c3826109fc565b9050919050565b60008115159050919050565b60008190506109e482610a6f565b919050565b60008190506109f782610a83565b919050565b600073ffffffffffffffffffffffffffffffffffffffff82169050919050565b6000610a27826109d6565b9050919050565b6000610a39826109e9565b9050919050565b7f4e487b7100000000000000000000000000000000000000000000000000000000600052602160045260246000fd5b60038110610a8057610a7f610a40565b5b50565b60048110610a9457610a93610a40565b5b50565b610aa0816109b8565b8114610aab57600080fd5b50565b610ab7816109ca565b8114610ac257600080fd5b50565b60038110610ad257600080fd5b50565b60048110610ae257600080fd5b5056fea2646970667358221220b416f24193b0229c9f661318ca6d50058b12cc3917709b44e15c72c49744da6c64736f6c63430008000033",
  "immutableReferences": {},
  "source": "// SPDX-License-Identifier: MIT\r\npragma solidity ^0.8.0;\r\n\r\ncontract RolesStorage {\r\n    enum Role {\r\n        Undefined,\r\n        Doctor,\r\n        Admin,\r\n        Patient\r\n    }\r\n    enum DataType {\r\n        Diagnosis,\r\n        Prescription,\r\n        LabResults\r\n    }\r\n\r\n    mapping(address => Role) public roles;\r\n    mapping(address => mapping(address => bool)) private requests;\r\n    mapping(address => mapping(address => bool)) private allowedRequests;\r\n    mapping(address => DataType[]) private patientData;\r\n\r\n    function setRole(address account, Role role) external {\r\n        roles[account] = role;\r\n    }\r\n\r\n    function getRole(address account) external view returns (Role) {\r\n        return roles[account];\r\n    }\r\n\r\n    function setRequest(\r\n        address requester,\r\n        address patient,\r\n        bool status\r\n    ) external {\r\n        requests[requester][patient] = status;\r\n    }\r\n\r\n    function getRequest(\r\n        address requester,\r\n        address patient\r\n    ) external view returns (bool) {\r\n        return requests[requester][patient];\r\n    }\r\n\r\n    function setAllowedRequest(\r\n        address requester,\r\n        address patient,\r\n        bool status\r\n    ) external {\r\n        allowedRequests[requester][patient] = status;\r\n    }\r\n\r\n    function getAllowedRequest(\r\n        address requester,\r\n        address patient\r\n    ) external view returns (bool) {\r\n        return allowedRequests[requester][patient];\r\n    }\r\n\r\n    function addPatientData(address patient, DataType dataType) external {\r\n        patientData[patient].push(dataType);\r\n    }\r\n\r\n    function getPatientData(\r\n        address patient\r\n    ) external view returns (DataType[] memory) {\r\n        return patientData[patient];\r\n    }\r\n}\r\n",
  "sourcePath": "D:\\Code\\Web3-Healthcare\\server\\src\\contracts\\RolesStorage.sol",
  "compiler": {
    "name": "solc",
    "version": "0.8.0+commit.c7dfd78e.Emscripten.clang"
  },
  "schemaVersion": "3.4.16",
  "updatedAt": "2025-03-26T05:05:06.897Z",
  "networkType": "ethereum",
  "devdoc": {
    "kind": "dev",
    "methods": {},
    "version": 1
  },
  "userdoc": {
    "kind": "user",
    "methods": {},
    "version": 1
  }
}