{
  "contractName": "RolesStorage",
  "abi": [
    {
      "inputs": [
        {
          "internalType": "address",
          "name": "",
          "type": "address"
        }
      ],
      "name": "roles",
      "outputs": [
        {
          "internalType": "enum RolesStorage.Role",
          "name": "",
          "type": "uint8"
        }
      ],
      "stateMutability": "view",
      "type": "function",
      "constant": true
    },
    {
      "inputs": [
        {
          "internalType": "address",
          "name": "account",
          "type": "address"
        },
        {
          "internalType": "enum RolesStorage.Role",
          "name": "role",
          "type": "uint8"
        }
      ],
      "name": "setRole",
      "outputs": [],
      "stateMutability": "nonpayable",
      "type": "function"
    },
    {
      "inputs": [
        {
          "internalType": "address",
          "name": "account",
          "type": "address"
        }
      ],
      "name": "getRole",
      "outputs": [
        {
          "internalType": "enum RolesStorage.Role",
          "name": "",
          "type": "uint8"
        }
      ],
      "stateMutability": "view",
      "type": "function",
      "constant": true
    },
    {
      "inputs": [
        {
          "internalType": "address",
          "name": "requester",
          "type": "address"
        },
        {
          "internalType": "address",
          "name": "patient",
          "type": "address"
        }
      ],
      "name": "setRequest",
      "outputs": [],
      "stateMutability": "nonpayable",
      "type": "function"
    },
    {
      "inputs": [
        {
          "internalType": "address",
          "name": "patient",
          "type": "address"
        }
      ],
      "name": "getRequest",
      "outputs": [
        {
          "internalType": "address[]",
          "name": "",
          "type": "address[]"
        }
      ],
      "stateMutability": "view",
      "type": "function",
      "constant": true
    },
    {
      "inputs": [
        {
          "internalType": "address",
          "name": "requester",
          "type": "address"
        },
        {
          "internalType": "address",
          "name": "patient",
          "type": "address"
        }
      ],
      "name": "setAllowedRequest",
      "outputs": [],
      "stateMutability": "nonpayable",
      "type": "function"
    },
    {
      "inputs": [
        {
          "internalType": "address",
          "name": "requester",
          "type": "address"
        }
      ],
      "name": "getAllowedRequest",
      "outputs": [
        {
          "internalType": "address[]",
          "name": "",
          "type": "address[]"
        }
      ],
      "stateMutability": "view",
      "type": "function",
      "constant": true
    },
    {
      "inputs": [
        {
          "internalType": "address",
          "name": "requester",
          "type": "address"
        },
        {
          "internalType": "address",
          "name": "patient",
          "type": "address"
        }
      ],
      "name": "removeRequest",
      "outputs": [],
      "stateMutability": "nonpayable",
      "type": "function"
    },
    {
      "inputs": [
        {
          "internalType": "address",
          "name": "requester",
          "type": "address"
        },
        {
          "internalType": "address",
          "name": "patient",
          "type": "address"
        }
      ],
      "name": "removeAllowedRequest",
      "outputs": [],
      "stateMutability": "nonpayable",
      "type": "function"
    }
  ],
  "bytecode": "0x608060405234801561001057600080fd5b5061126d806100206000396000f3fe608060405234801561001057600080fd5b50600436106100935760003560e01c806363c1dff71161006657806363c1dff7146101305780639937464214610160578063c799dee514610190578063d8ec7313146101ac578063fe8806f5146101c857610093565b8063019ae5371461009857806344276733146100b457806352c86bdc146100e4578063571c3e6014610114575b600080fd5b6100b260048036038101906100ad9190610ecd565b6101e4565b005b6100ce60048036038101906100c99190610ea4565b6102f7565b6040516100db919061103b565b60405180910390f35b6100fe60048036038101906100f99190610ea4565b61034c565b60405161010b9190611019565b60405180910390f35b61012e60048036038101906101299190610f09565b610419565b005b61014a60048036038101906101459190610ea4565b6104a9565b6040516101579190611019565b60405180910390f35b61017a60048036038101906101759190610ea4565b610576565b604051610187919061103b565b60405180910390f35b6101aa60048036038101906101a59190610ecd565b610596565b005b6101c660048036038101906101c19190610ecd565b61097f565b005b6101e260048036038101906101dd9190610ecd565b610a92565b005b8173ffffffffffffffffffffffffffffffffffffffff168173ffffffffffffffffffffffffffffffffffffffff161415610253576040517f08c379a000000000000000000000000000000000000000000000000000000000815260040161024a90611056565b60405180910390fd5b600260008373ffffffffffffffffffffffffffffffffffffffff1673ffffffffffffffffffffffffffffffffffffffff168152602001908152602001600020819080600181540180825580915050600190039060005260206000200160009091909190916101000a81548173ffffffffffffffffffffffffffffffffffffffff021916908373ffffffffffffffffffffffffffffffffffffffff1602179055505050565b60008060008373ffffffffffffffffffffffffffffffffffffffff1673ffffffffffffffffffffffffffffffffffffffff16815260200190815260200160002060009054906101000a900460ff169050919050565b6060600260008373ffffffffffffffffffffffffffffffffffffffff1673ffffffffffffffffffffffffffffffffffffffff16815260200190815260200160002080548060200260200160405190810160405280929190818152602001828054801561040d57602002820191906000526020600020905b8160009054906101000a900473ffffffffffffffffffffffffffffffffffffffff1673ffffffffffffffffffffffffffffffffffffffff16815260200190600101908083116103c3575b50505050509050919050565b806000808473ffffffffffffffffffffffffffffffffffffffff1673ffffffffffffffffffffffffffffffffffffffff16815260200190815260200160002060006101000a81548160ff021916908360038111156104a0577f4e487b7100000000000000000000000000000000000000000000000000000000600052602160045260246000fd5b02179055505050565b6060600160008373ffffffffffffffffffffffffffffffffffffffff1673ffffffffffffffffffffffffffffffffffffffff16815260200190815260200160002080548060200260200160405190810160405280929190818152602001828054801561056a57602002820191906000526020600020905b8160009054906101000a900473ffffffffffffffffffffffffffffffffffffffff1673ffffffffffffffffffffffffffffffffffffffff1681526020019060010190808311610520575b50505050509050919050565b60006020528060005260406000206000915054906101000a900460ff1681565b6000600260008473ffffffffffffffffffffffffffffffffffffffff1673ffffffffffffffffffffffffffffffffffffffff1681526020019081526020016000208054905014156105e65761097b565b60005b600260008473ffffffffffffffffffffffffffffffffffffffff1673ffffffffffffffffffffffffffffffffffffffff16815260200190815260200160002080549050811015610979578173ffffffffffffffffffffffffffffffffffffffff16600260008573ffffffffffffffffffffffffffffffffffffffff1673ffffffffffffffffffffffffffffffffffffffff16815260200190815260200160002082815481106106c1577f4e487b7100000000000000000000000000000000000000000000000000000000600052603260045260246000fd5b9060005260206000200160009054906101000a900473ffffffffffffffffffffffffffffffffffffffff1673ffffffffffffffffffffffffffffffffffffffff16141561096657600260008473ffffffffffffffffffffffffffffffffffffffff1673ffffffffffffffffffffffffffffffffffffffff1681526020019081526020016000206001600260008673ffffffffffffffffffffffffffffffffffffffff1673ffffffffffffffffffffffffffffffffffffffff1681526020019081526020016000208054905061079691906110c0565b815481106107cd577f4e487b7100000000000000000000000000000000000000000000000000000000600052603260045260246000fd5b9060005260206000200160009054906101000a900473ffffffffffffffffffffffffffffffffffffffff16600260008573ffffffffffffffffffffffffffffffffffffffff1673ffffffffffffffffffffffffffffffffffffffff168152602001908152602001600020828154811061086f577f4e487b7100000000000000000000000000000000000000000000000000000000600052603260045260246000fd5b9060005260206000200160006101000a81548173ffffffffffffffffffffffffffffffffffffffff021916908373ffffffffffffffffffffffffffffffffffffffff160217905550600260008473ffffffffffffffffffffffffffffffffffffffff1673ffffffffffffffffffffffffffffffffffffffff16815260200190815260200160002080548061092c577f4e487b7100000000000000000000000000000000000000000000000000000000600052603160045260246000fd5b6001900381819060005260206000200160006101000a81549073ffffffffffffffffffffffffffffffffffffffff02191690559055610979565b808061097190611155565b9150506105e9565b505b5050565b8173ffffffffffffffffffffffffffffffffffffffff168173ffffffffffffffffffffffffffffffffffffffff1614156109ee576040517f08c379a00000000000000000000000000000000000000000000000000000000081526004016109e590611056565b60405180910390fd5b600160008273ffffffffffffffffffffffffffffffffffffffff1673ffffffffffffffffffffffffffffffffffffffff168152602001908152602001600020829080600181540180825580915050600190039060005260206000200160009091909190916101000a81548173ffffffffffffffffffffffffffffffffffffffff021916908373ffffffffffffffffffffffffffffffffffffffff1602179055505050565b6000600160008373ffffffffffffffffffffffffffffffffffffffff1673ffffffffffffffffffffffffffffffffffffffff168152602001908152602001600020805490501415610ae257610e76565b60005b600160008373ffffffffffffffffffffffffffffffffffffffff1673ffffffffffffffffffffffffffffffffffffffff16815260200190815260200160002080549050811015610e74578273ffffffffffffffffffffffffffffffffffffffff16600160008473ffffffffffffffffffffffffffffffffffffffff1673ffffffffffffffffffffffffffffffffffffffff1681526020019081526020016000208281548110610bbd577f4e487b7100000000000000000000000000000000000000000000000000000000600052603260045260246000fd5b9060005260206000200160009054906101000a900473ffffffffffffffffffffffffffffffffffffffff1673ffffffffffffffffffffffffffffffffffffffff161415610e6157600160008373ffffffffffffffffffffffffffffffffffffffff1673ffffffffffffffffffffffffffffffffffffffff16815260200190815260200160002060018060008573ffffffffffffffffffffffffffffffffffffffff1673ffffffffffffffffffffffffffffffffffffffff16815260200190815260200160002080549050610c9191906110c0565b81548110610cc8577f4e487b7100000000000000000000000000000000000000000000000000000000600052603260045260246000fd5b9060005260206000200160009054906101000a900473ffffffffffffffffffffffffffffffffffffffff16600160008473ffffffffffffffffffffffffffffffffffffffff1673ffffffffffffffffffffffffffffffffffffffff1681526020019081526020016000208281548110610d6a577f4e487b7100000000000000000000000000000000000000000000000000000000600052603260045260246000fd5b9060005260206000200160006101000a81548173ffffffffffffffffffffffffffffffffffffffff021916908373ffffffffffffffffffffffffffffffffffffffff160217905550600160008373ffffffffffffffffffffffffffffffffffffffff1673ffffffffffffffffffffffffffffffffffffffff168152602001908152602001600020805480610e27577f4e487b7100000000000000000000000000000000000000000000000000000000600052603160045260246000fd5b6001900381819060005260206000200160006101000a81549073ffffffffffffffffffffffffffffffffffffffff02191690559055610e74565b8080610e6c90611155565b915050610ae5565b505b5050565b600081359050610e8981611210565b92915050565b600081359050610e9e81611227565b92915050565b600060208284031215610eb657600080fd5b6000610ec484828501610e7a565b91505092915050565b60008060408385031215610ee057600080fd5b6000610eee85828601610e7a565b9250506020610eff85828601610e7a565b9150509250929050565b60008060408385031215610f1c57600080fd5b6000610f2a85828601610e7a565b9250506020610f3b85828601610e8f565b9150509250929050565b6000610f518383610f5d565b60208301905092915050565b610f66816110f4565b82525050565b6000610f7782611086565b610f81818561109e565b9350610f8c83611076565b8060005b83811015610fbd578151610fa48882610f45565b9750610faf83611091565b925050600181019050610f90565b5085935050505092915050565b610fd381611143565b82525050565b6000610fe66013836110af565b91507f43616e6e6f7420726571756573742073656c66000000000000000000000000006000830152602082019050919050565b600060208201905081810360008301526110338184610f6c565b905092915050565b60006020820190506110506000830184610fca565b92915050565b6000602082019050818103600083015261106f81610fd9565b9050919050565b6000819050602082019050919050565b600081519050919050565b6000602082019050919050565b600082825260208201905092915050565b600082825260208201905092915050565b60006110cb82611139565b91506110d683611139565b9250828210156110e9576110e861119e565b5b828203905092915050565b60006110ff82611119565b9050919050565b6000819050611114826111fc565b919050565b600073ffffffffffffffffffffffffffffffffffffffff82169050919050565b6000819050919050565b600061114e82611106565b9050919050565b600061116082611139565b91507fffffffffffffffffffffffffffffffffffffffffffffffffffffffffffffffff8214156111935761119261119e565b5b600182019050919050565b7f4e487b7100000000000000000000000000000000000000000000000000000000600052601160045260246000fd5b7f4e487b7100000000000000000000000000000000000000000000000000000000600052602160045260246000fd5b6004811061120d5761120c6111cd565b5b50565b611219816110f4565b811461122457600080fd5b50565b6004811061123457600080fd5b5056fea2646970667358221220f5ebf13d7d2aecb220fe1a8caba54554132ccb7b3c68c954674afcf6cde7d7bf64736f6c63430008000033",
  "immutableReferences": {},
  "source": "// SPDX-License-Identifier: MIT\r\npragma solidity ^0.8.0;\r\n\r\ncontract RolesStorage {\r\n    enum Role {\r\n        Undefined,\r\n        Doctor,\r\n        Admin,\r\n        Patient\r\n    }\r\n\r\n    mapping(address => Role) public roles;\r\n    mapping(address => address[]) private requests;\r\n    mapping(address => address[]) private allowedRequests;\r\n\r\n    function setRole(address account, Role role) external {\r\n        roles[account] = role;\r\n    }\r\n\r\n    function getRole(address account) external view returns (Role) {\r\n        return roles[account];\r\n    }\r\n\r\n    function setRequest(address requester, address patient) external {\r\n        require(patient != requester, \"Cannot request self\");\r\n        requests[patient].push(requester);\r\n    }\r\n\r\n    function getRequest(\r\n        address patient\r\n    ) external view returns (address[] memory) {\r\n        return requests[patient];\r\n    }\r\n\r\n    function setAllowedRequest(address requester, address patient) external {\r\n        require(patient != requester, \"Cannot request self\");\r\n        allowedRequests[requester].push(patient);\r\n    }\r\n\r\n    function getAllowedRequest(\r\n        address requester\r\n    ) external view returns (address[] memory) {\r\n        return allowedRequests[requester];\r\n    }\r\n\r\n    function removeRequest(address requester, address patient) external {\r\n        if (requests[patient].length == 0) return;\r\n\r\n        for (uint i = 0; i < requests[patient].length; i++) {\r\n            if (requests[patient][i] == requester) {\r\n                requests[patient][i] = requests[patient][\r\n                    requests[patient].length - 1\r\n                ];\r\n                requests[patient].pop();\r\n                break;\r\n            }\r\n        }\r\n    }\r\n\r\n    function removeAllowedRequest(address requester, address patient) external {\r\n        if (allowedRequests[requester].length == 0) return;\r\n\r\n        for (uint i = 0; i < allowedRequests[requester].length; i++) {\r\n            if (allowedRequests[requester][i] == patient) {\r\n                allowedRequests[requester][i] = allowedRequests[requester][\r\n                    allowedRequests[requester].length - 1\r\n                ];\r\n                allowedRequests[requester].pop();\r\n                break;\r\n            }\r\n        }\r\n    }\r\n}\r\n",
  "sourcePath": "D:\\Code\\Web3-Healthcare\\server\\src\\contracts\\RolesStorage.sol",
  "compiler": {
    "name": "solc",
    "version": "0.8.0+commit.c7dfd78e.Emscripten.clang"
  },
  "schemaVersion": "3.4.16",
  "updatedAt": "2025-03-29T03:36:09.273Z",
  "networkType": "ethereum",
  "devdoc": {
    "kind": "dev",
    "methods": {},
    "version": 1
  },
  "userdoc": {
    "kind": "user",
    "methods": {},
    "version": 1
  }
}