{
  "contractName": "RolesStorage",
  "abi": [
    {
      "inputs": [
        {
          "internalType": "address",
          "name": "",
          "type": "address"
        }
      ],
      "name": "roles",
      "outputs": [
        {
          "internalType": "enum RolesStorage.Role",
          "name": "",
          "type": "uint8"
        }
      ],
      "stateMutability": "view",
      "type": "function",
      "constant": true
    },
    {
      "inputs": [
        {
          "internalType": "address",
          "name": "account",
          "type": "address"
        },
        {
          "internalType": "enum RolesStorage.Role",
          "name": "role",
          "type": "uint8"
        }
      ],
      "name": "setRole",
      "outputs": [],
      "stateMutability": "nonpayable",
      "type": "function"
    },
    {
      "inputs": [
        {
          "internalType": "address",
          "name": "account",
          "type": "address"
        }
      ],
      "name": "getRole",
      "outputs": [
        {
          "internalType": "enum RolesStorage.Role",
          "name": "",
          "type": "uint8"
        }
      ],
      "stateMutability": "view",
      "type": "function",
      "constant": true
    },
    {
      "inputs": [
        {
          "internalType": "address",
          "name": "requester",
          "type": "address"
        },
        {
          "internalType": "address",
          "name": "patient",
          "type": "address"
        },
        {
          "internalType": "bool",
          "name": "status",
          "type": "bool"
        }
      ],
      "name": "setRequest",
      "outputs": [],
      "stateMutability": "nonpayable",
      "type": "function"
    },
    {
      "inputs": [
        {
          "internalType": "address",
          "name": "requester",
          "type": "address"
        },
        {
          "internalType": "address",
          "name": "patient",
          "type": "address"
        }
      ],
      "name": "getRequest",
      "outputs": [
        {
          "internalType": "bool",
          "name": "",
          "type": "bool"
        }
      ],
      "stateMutability": "view",
      "type": "function",
      "constant": true
    },
    {
      "inputs": [
        {
          "internalType": "address",
          "name": "requester",
          "type": "address"
        },
        {
          "internalType": "address",
          "name": "patient",
          "type": "address"
        },
        {
          "internalType": "bool",
          "name": "status",
          "type": "bool"
        }
      ],
      "name": "setAllowedRequest",
      "outputs": [],
      "stateMutability": "nonpayable",
      "type": "function"
    },
    {
      "inputs": [
        {
          "internalType": "address",
          "name": "requester",
          "type": "address"
        },
        {
          "internalType": "address",
          "name": "patient",
          "type": "address"
        }
      ],
      "name": "getAllowedRequest",
      "outputs": [
        {
          "internalType": "bool",
          "name": "",
          "type": "bool"
        }
      ],
      "stateMutability": "view",
      "type": "function",
      "constant": true
    }
  ],
  "bytecode": "0x608060405234801561001057600080fd5b50610792806100206000396000f3fe608060405234801561001057600080fd5b506004361061007d5760003560e01c8063571c3e601161005b578063571c3e60146100ea5780636e86f1b8146101065780639937464214610136578063bfd74534146101665761007d565b806304e279b514610082578063442767331461009e5780634f9b5ebf146100ce575b600080fd5b61009c60048036038101906100979190610599565b610196565b005b6100b860048036038101906100b39190610534565b61022f565b6040516100c5919061065d565b60405180910390f35b6100e860048036038101906100e39190610599565b610284565b005b61010460048036038101906100ff91906105e8565b61031d565b005b610120600480360381019061011b919061055d565b6103ad565b60405161012d9190610642565b60405180910390f35b610150600480360381019061014b9190610534565b610441565b60405161015d919061065d565b60405180910390f35b610180600480360381019061017b919061055d565b610461565b60405161018d9190610642565b60405180910390f35b80600260008573ffffffffffffffffffffffffffffffffffffffff1673ffffffffffffffffffffffffffffffffffffffff16815260200190815260200160002060008473ffffffffffffffffffffffffffffffffffffffff1673ffffffffffffffffffffffffffffffffffffffff16815260200190815260200160002060006101000a81548160ff021916908315150217905550505050565b60008060008373ffffffffffffffffffffffffffffffffffffffff1673ffffffffffffffffffffffffffffffffffffffff16815260200190815260200160002060009054906101000a900460ff169050919050565b80600160008473ffffffffffffffffffffffffffffffffffffffff1673ffffffffffffffffffffffffffffffffffffffff16815260200190815260200160002060008573ffffffffffffffffffffffffffffffffffffffff1673ffffffffffffffffffffffffffffffffffffffff16815260200190815260200160002060006101000a81548160ff021916908315150217905550505050565b806000808473ffffffffffffffffffffffffffffffffffffffff1673ffffffffffffffffffffffffffffffffffffffff16815260200190815260200160002060006101000a81548160ff021916908360038111156103a4577f4e487b7100000000000000000000000000000000000000000000000000000000600052602160045260246000fd5b02179055505050565b6000600260008473ffffffffffffffffffffffffffffffffffffffff1673ffffffffffffffffffffffffffffffffffffffff16815260200190815260200160002060008373ffffffffffffffffffffffffffffffffffffffff1673ffffffffffffffffffffffffffffffffffffffff16815260200190815260200160002060009054906101000a900460ff16905092915050565b60006020528060005260406000206000915054906101000a900460ff1681565b6000600160008373ffffffffffffffffffffffffffffffffffffffff1673ffffffffffffffffffffffffffffffffffffffff16815260200190815260200160002060008473ffffffffffffffffffffffffffffffffffffffff1673ffffffffffffffffffffffffffffffffffffffff16815260200190815260200160002060009054906101000a900460ff16905092915050565b6000813590506105048161071e565b92915050565b60008135905061051981610735565b92915050565b60008135905061052e8161074c565b92915050565b60006020828403121561054657600080fd5b6000610554848285016104f5565b91505092915050565b6000806040838503121561057057600080fd5b600061057e858286016104f5565b925050602061058f858286016104f5565b9150509250929050565b6000806000606084860312156105ae57600080fd5b60006105bc868287016104f5565b93505060206105cd868287016104f5565b92505060406105de8682870161050a565b9150509250925092565b600080604083850312156105fb57600080fd5b6000610609858286016104f5565b925050602061061a8582860161051f565b9150509250929050565b61062d8161068a565b82525050565b61063c816106c9565b82525050565b60006020820190506106576000830184610624565b92915050565b60006020820190506106726000830184610633565b92915050565b6000610683826106a9565b9050919050565b60008115159050919050565b60008190506106a48261070a565b919050565b600073ffffffffffffffffffffffffffffffffffffffff82169050919050565b60006106d482610696565b9050919050565b7f4e487b7100000000000000000000000000000000000000000000000000000000600052602160045260246000fd5b6004811061071b5761071a6106db565b5b50565b61072781610678565b811461073257600080fd5b50565b61073e8161068a565b811461074957600080fd5b50565b6004811061075957600080fd5b5056fea2646970667358221220a03a0f89d5be8447c549acbad39eb30955c205ebde01c1e1e36ecf819e25a3b464736f6c63430008000033",
  "immutableReferences": {},
  "source": "// SPDX-License-Identifier: MIT\r\npragma solidity ^0.8.0;\r\n\r\ncontract RolesStorage {\r\n    enum Role {\r\n        Undefined,\r\n        Doctor,\r\n        Admin,\r\n        Patient\r\n    }\r\n\r\n    mapping(address => Role) public roles;\r\n    mapping(address => mapping(address => bool)) private requests;\r\n    mapping(address => mapping(address => bool)) private allowedRequests;\r\n\r\n    function setRole(address account, Role role) external {\r\n        roles[account] = role;\r\n    }\r\n\r\n    function getRole(address account) external view returns (Role) {\r\n        return roles[account];\r\n    }\r\n\r\n    function setRequest(\r\n        address requester,\r\n        address patient,\r\n        bool status\r\n    ) external {\r\n        requests[patient][requester] = status;\r\n    }\r\n\r\n    function getRequest(\r\n        address requester,\r\n        address patient\r\n    ) external view returns (bool) {\r\n        return requests[patient][requester];\r\n    }\r\n\r\n    function setAllowedRequest(\r\n        address requester,\r\n        address patient,\r\n        bool status\r\n    ) external {\r\n        allowedRequests[requester][patient] = status;\r\n    }\r\n\r\n    function getAllowedRequest(\r\n        address requester,\r\n        address patient\r\n    ) external view returns (bool) {\r\n        return allowedRequests[requester][patient];\r\n    }\r\n}\r\n",
  "sourcePath": "D:\\Code\\Web3-Healthcare\\server\\src\\contracts\\RolesStorage.sol",
  "compiler": {
    "name": "solc",
    "version": "0.8.0+commit.c7dfd78e.Emscripten.clang"
  },
  "schemaVersion": "3.4.16",
  "updatedAt": "2025-03-27T17:02:37.400Z",
  "networkType": "ethereum",
  "devdoc": {
    "kind": "dev",
    "methods": {},
    "version": 1
  },
  "userdoc": {
    "kind": "user",
    "methods": {},
    "version": 1
  }
}