{
  "contractName": "UploadData",
  "abi": [
    {
      "inputs": [
        {
          "internalType": "address",
          "name": "_healthRecordsStorage",
          "type": "address"
        },
        {
          "internalType": "address",
          "name": "_rolesStorage",
          "type": "address"
        }
      ],
      "stateMutability": "nonpayable",
      "type": "constructor"
    },
    {
      "anonymous": false,
      "inputs": [
        {
          "indexed": true,
          "internalType": "address",
          "name": "patient",
          "type": "address"
        },
        {
          "indexed": true,
          "internalType": "address",
          "name": "uploader",
          "type": "address"
        },
        {
          "indexed": false,
          "internalType": "enum HealthRecordsStorage.DataType",
          "name": "dataType",
          "type": "uint8"
        },
        {
          "indexed": false,
          "internalType": "string",
          "name": "dataHash",
          "type": "string"
        }
      ],
      "name": "DataUploaded",
      "type": "event"
    },
    {
      "inputs": [
        {
          "internalType": "address",
          "name": "patient",
          "type": "address"
        },
        {
          "internalType": "enum HealthRecordsStorage.DataType",
          "name": "dataType",
          "type": "uint8"
        },
        {
          "internalType": "string",
          "name": "dataHash",
          "type": "string"
        }
      ],
      "name": "uploadPatientData",
      "outputs": [],
      "stateMutability": "nonpayable",
      "type": "function"
    }
  ],
  "bytecode": "0x608060405234801561001057600080fd5b506040516109cf3803806109cf833981810160405281019061003291906100cf565b816000806101000a81548173ffffffffffffffffffffffffffffffffffffffff021916908373ffffffffffffffffffffffffffffffffffffffff16021790555080600160006101000a81548173ffffffffffffffffffffffffffffffffffffffff021916908373ffffffffffffffffffffffffffffffffffffffff1602179055505050610154565b6000815190506100c98161013d565b92915050565b600080604083850312156100e257600080fd5b60006100f0858286016100ba565b9250506020610101858286016100ba565b9150509250929050565b60006101168261011d565b9050919050565b600073ffffffffffffffffffffffffffffffffffffffff82169050919050565b6101468161010b565b811461015157600080fd5b50565b61086c806101636000396000f3fe608060405234801561001057600080fd5b506004361061002b5760003560e01c80639f66aaa314610030575b600080fd5b61004a60048036038101906100459190610470565b61004c565b005b60016003811115610086577f4e487b7100000000000000000000000000000000000000000000000000000000600052602160045260246000fd5b600160009054906101000a900473ffffffffffffffffffffffffffffffffffffffff1673ffffffffffffffffffffffffffffffffffffffff166344276733336040518263ffffffff1660e01b81526004016100e191906105bd565b60206040518083038186803b1580156100f957600080fd5b505afa15801561010d573d6000803e3d6000fd5b505050506040513d601f19601f8201168201806040525081019061013191906104d7565b6003811115610169577f4e487b7100000000000000000000000000000000000000000000000000000000600052602160045260246000fd5b148061028f5750600260038111156101aa577f4e487b7100000000000000000000000000000000000000000000000000000000600052602160045260246000fd5b600160009054906101000a900473ffffffffffffffffffffffffffffffffffffffff1673ffffffffffffffffffffffffffffffffffffffff166344276733336040518263ffffffff1660e01b815260040161020591906105bd565b60206040518083038186803b15801561021d57600080fd5b505afa158015610231573d6000803e3d6000fd5b505050506040513d601f19601f8201168201806040525081019061025591906104d7565b600381111561028d577f4e487b7100000000000000000000000000000000000000000000000000000000600052602160045260246000fd5b145b6102ce576040517f08c379a00000000000000000000000000000000000000000000000000000000081526004016102c590610646565b60405180910390fd5b60008054906101000a900473ffffffffffffffffffffffffffffffffffffffff1673ffffffffffffffffffffffffffffffffffffffff16637fcfef948484846040518463ffffffff1660e01b815260040161032b939291906105d8565b600060405180830381600087803b15801561034557600080fd5b505af1158015610359573d6000803e3d6000fd5b505050503373ffffffffffffffffffffffffffffffffffffffff168373ffffffffffffffffffffffffffffffffffffffff167fe971bc8099ace9de100689c391dd96f406c2fb336ded8648bbce370cba316b5784846040516103bc929190610616565b60405180910390a3505050565b60006103dc6103d784610697565b610666565b9050828152602081018484840111156103f457600080fd5b6103ff84828561073a565b509392505050565b600081359050610416816107ff565b92915050565b60008135905061042b81610816565b92915050565b60008151905061044081610826565b92915050565b600082601f83011261045757600080fd5b81356104678482602086016103c9565b91505092915050565b60008060006060848603121561048557600080fd5b600061049386828701610407565b93505060206104a48682870161041c565b925050604084013567ffffffffffffffff8111156104c157600080fd5b6104cd86828701610446565b9150509250925092565b6000602082840312156104e957600080fd5b60006104f784828501610431565b91505092915050565b610509816106e3565b82525050565b61051881610728565b82525050565b6000610529826106c7565b61053381856106d2565b9350610543818560208601610749565b61054c816107da565b840191505092915050565b60006105646026836106d2565b91507f4f6e6c7920646f63746f7273206f722061646d696e732063616e2075706c6f6160008301527f64206461746100000000000000000000000000000000000000000000000000006020830152604082019050919050565b60006020820190506105d26000830184610500565b92915050565b60006060820190506105ed6000830186610500565b6105fa602083018561050f565b818103604083015261060c818461051e565b9050949350505050565b600060408201905061062b600083018561050f565b818103602083015261063d818461051e565b90509392505050565b6000602082019050818103600083015261065f81610557565b9050919050565b6000604051905081810181811067ffffffffffffffff8211171561068d5761068c6107ab565b5b8060405250919050565b600067ffffffffffffffff8211156106b2576106b16107ab565b5b601f19601f8301169050602081019050919050565b600081519050919050565b600082825260208201905092915050565b60006106ee82610708565b9050919050565b6000819050610703826107eb565b919050565b600073ffffffffffffffffffffffffffffffffffffffff82169050919050565b6000610733826106f5565b9050919050565b82818337600083830152505050565b60005b8381101561076757808201518184015260208101905061074c565b83811115610776576000848401525b50505050565b7f4e487b7100000000000000000000000000000000000000000000000000000000600052602160045260246000fd5b7f4e487b7100000000000000000000000000000000000000000000000000000000600052604160045260246000fd5b6000601f19601f8301169050919050565b600481106107fc576107fb61077c565b5b50565b610808816106e3565b811461081357600080fd5b50565b6004811061082357600080fd5b50565b6004811061083357600080fd5b5056fea2646970667358221220dd0e3be3821ab2e1e536b3d31d673dc601567ae0f543e899a0cbe9a5f1e80e5464736f6c63430008000033",
  "immutableReferences": {},
  "source": "// SPDX-License-Identifier: MIT\r\npragma solidity ^0.8.0;\r\n\r\nimport \"./HealthRecordsStorage.sol\";\r\nimport \"./RolesStorage.sol\";\r\n\r\ncontract UploadData {\r\n    HealthRecordsStorage private healthRecordsStorage;\r\n    RolesStorage private rolesStorage;\r\n\r\n    event DataUploaded(\r\n        address indexed patient,\r\n        address indexed uploader,\r\n        HealthRecordsStorage.DataType dataType,\r\n        string dataHash\r\n    );\r\n\r\n    modifier onlyDoctorOrAdmin() {\r\n        require(\r\n            rolesStorage.getRole(msg.sender) == RolesStorage.Role.Doctor ||\r\n                rolesStorage.getRole(msg.sender) == RolesStorage.Role.Admin,\r\n            \"Only doctors or admins can upload data\"\r\n        );\r\n        _;\r\n    }\r\n\r\n    constructor(address _healthRecordsStorage, address _rolesStorage) {\r\n        healthRecordsStorage = HealthRecordsStorage(_healthRecordsStorage);\r\n        rolesStorage = RolesStorage(_rolesStorage);\r\n    }\r\n\r\n    function uploadPatientData(\r\n        address patient,\r\n        HealthRecordsStorage.DataType dataType,\r\n        string memory dataHash\r\n    ) external onlyDoctorOrAdmin {\r\n        healthRecordsStorage.storeRecord(patient, dataType, dataHash);\r\n        emit DataUploaded(patient, msg.sender, dataType, dataHash);\r\n    }\r\n}\r\n",
  "sourcePath": "D:\\Code\\Web3-Healthcare\\server\\src\\contracts\\UploadData.sol",
  "compiler": {
    "name": "solc",
    "version": "0.8.0+commit.c7dfd78e.Emscripten.clang"
  },
  "schemaVersion": "3.4.16",
  "updatedAt": "2025-03-26T05:05:06.900Z",
  "networkType": "ethereum",
  "devdoc": {
    "kind": "dev",
    "methods": {},
    "version": 1
  },
  "userdoc": {
    "kind": "user",
    "methods": {},
    "version": 1
  }
}